:100000000C9491000C94B9000C94B9000C94B900B4
:100010000C94B9000C94B9000C94B9000C94B9007C
:100020000C94B9000C94B9000C94B9000C94B9006C
:100030000C94B9000C94B9000C94B9000C94B9005C
:100040000C942B0A0C94B9000C9446060C942006D0
:100050000C94B9000C94B9000C94B9000C94B9003C
:100060000C94B9000C94B900000000002400270093
:100070002A0000000000250028002B0000000000DE
:1000800023002600290004040404040404040202DA
:100090000202020203030303030301020408102007
:1000A0004080010204081020010204081020000012
:1000B0000008000201000003040700000000000027
:1000C000000000010101010101014E78010101015F
:1000D00000017E306D79335B5F707F7B0101010130
:1000E000010101771F4E3D4F475E37303C010E0145
:1000F000157E6701055B073E01010127014E01786E
:10010000010801771F0D3D4F475E17103C010E019E
:10011000157E6701055B071C010101270100A60E82
:10012000750A11241FBECFEFD8E0DEBFCDBF11E0AE
:10013000A0E0B1E0E2EAF5E202C005900D92AC3435
:10014000B107D9F722E0ACE4B1E001C01D92A039BB
:10015000B207E1F710E0C0E9D0E004C02197FE014A
:100160000E948F0FCF38D107C9F70E94A30A0C94C1
:10017000C4120C940000FC01918D828D981761F0DF
:10018000828DDF01A80FB11D5D968C91928D9F5FCE
:100190009F73928F90E008958FEF9FEF0895FC0179
:1001A000918D828D981731F0828DE80FF11D858D2C
:1001B00090E008958FEF9FEF0895FC01918D228DBF
:1001C000892F90E0805C9F4F821B91098F73992744
:1001D000089580E090E0892B29F00E94A505811107
:1001E0000C94000008950F931F93CF93DF932091F9
:1001F0004F012F5F322F377030934F0120FF02C025
:1002000020E801C020E031FD2064347009F0206254
:10021000205FFC01EC01239600E011E06485662379
:1002200031F070E0C8010E94740F6F5F01C060E0A0
:100230006187322F369F030E30E0311D11243111BA
:1002400002C0168202C031503683662311F061501D
:1002500061873196CE17DF0709F7DF91CF911F91A4
:100260000F91089580E991E00895389A08950F93C9
:100270001F93CF93DF93CDB7DEB762970FB6F89495
:10028000DEBF0FBECDBF8C01F901DC011C968C9145
:100290007A8369835C834B835E834D8390819D87E2
:1002A00091819E8792819F87813029F4CE010196AA
:1002B0000E94F30006C01C861B861A8619861886C3
:1002C0001F8283E0888B1A8A198AD801ED91FC91EC
:1002D0000484F585E02DBE016F5F7F4FC80109954D
:1002E00062960FB6F894DEBF0FBECDBFDF91CF91FF
:1002F0001F910F9108950F931F93CF93DF93CDB765
:10030000DEB762970FB6F894DEBF0FBECDBF8C018B
:10031000F901DC011C968C917A8369835C834B83A1
:100320005E834D8390819D8791819E8792819F8777
:10033000813029F4CE0101960E94F30006C01C868C
:100340001B861A86198618861F82188A1A8A198AA5
:10035000D801ED91FC910484F585E02DBE016F5F1D
:100360007F4FC801099562960FB6F894DEBF0FBEA5
:10037000CDBFDF91CF911F910F910895CF93DF9360
:1003800000D000D000D0CDB7DEB7AB011C821D82FB
:100390001E82DC01ED91FC910190F081E02D19822B
:1003A0001A821B829E012F5F3F4FBE016C5F7F4F01
:1003B000099526960FB6F894DEBF0FBECDBFDF912C
:1003C000CF910895FC0185859685089580E090E0A1
:1003D00008954F925F926F927F928F92AF92BF92E9
:1003E000CF92DF92EF920F931F93CF93DF933C0155
:1003F000EB010E94A208F30127853089621B730B71
:100400006A307105B0F3F894E881F98178B17160D0
:1004100068B16E7F68B9CA848F812C2D281B822F0A
:100420002F83BF844A805B801D850C85DE841F5F1F
:100430000F5FD3949E813885A984EB844181D201DA
:1004400020E0C32F522F322F31814427889431115D
:10045000380F08F43FEF8195889410FD430F4795BE
:10046000889411FD430F4795889412FD430F4795DB
:10047000889413FD430F4795889414FD430F4795C7
:10048000889415FD430F4795889416FD430F4795B3
:10049000889417FD430F47958894232F1111242F1B
:1004A0008C0D422F002C78B900C047FF68B930810D
:1004B0002227889400C000C0002C68B93111390F80
:1004C00000C0002C78B900C046FF68B908F43FEFBF
:1004D0009195889400C000C0002C68B900FD230FDE
:1004E00000C0002C78B900C045FF68B927958894F2
:1004F00001FD230F00C000C0002C68B92795889427
:1005000000C0002C78B900C044FF68B902FD230F79
:100510002795889400C000C0002C68B903FD230F04
:1005200000C0002C78B900C043FF68B927958894B3
:1005300004FD230F00C000C0002C68B927958894E3
:1005400000C0002C78B900C042FF68B905FD230F38
:100550002795889400C000C0002C68B906FD230FC1
:1005600000C0002C78B900C041FF68B92795889475
:1005700007FD230F00C000C0002C68B927958894A0
:1005800000C0002C78B900C040FF68B9432F0111AA
:10059000422F9A0D00C000C0002C68B900C000C0F6
:1005A000002C78B900C047FF68B9328122278894AF
:1005B00000C000C0002C68B931113C0F00C0002CF5
:1005C00078B900C046FF68B908F43FEFEB0DF11DA4
:1005D00000C000C0002C68B9D0FC230F00C0002C64
:1005E00078B900C045FF68B927958894D1FC230FDE
:1005F00000C000C0002C68B92795889400C0002C6A
:1006000078B900C044FF68B9D2FC230F27958894BD
:1006100000C000C0002C68B9D3FC230F00C0002C20
:1006200078B900C043FF68B927958894D4FC230F9C
:1006300000C000C0002C68B92795889400C0002C29
:1006400078B900C042FF68B9D5FC230F279588947C
:1006500000C000C0002C68B9D6FC230F00C0002CDD
:1006600078B900C041FF68B927958894D7FC230F5B
:1006700000C000C0002C68B92795889400C0002CE9
:1006800078B900C040FF68B9432FD110422FC195FF
:1006900000C000C0002C68B9CE0D00C000C078B901
:1006A00000C047FF68B931812227889400C000C08C
:1006B000002C68B93111380F00C0002C78B900C087
:1006C00046FF68B908F43FEF8195889400C000C0E8
:1006D000002C68B910FD230F00C0002C78B900C0B1
:1006E00045FF68B92795889411FD230F00C000C00D
:1006F000002C68B92795889400C0002C78B900C0F8
:1007000044FF68B912FD230F2795889400C000C0EC
:10071000002C68B913FD230F00C0002C78B900C06D
:1007200043FF68B92795889414FD230F00C000C0CB
:10073000002C68B92795889400C0002C78B900C0B7
:1007400042FF68B915FD230F2795889400C000C0AB
:10075000002C68B916FD230F00C0002C78B900C02A
:1007600041FF68B92795889417FD230F00C000C08A
:10077000002C68B92795889400C0002C78B900C077
:1007800040FF68B9432F1111422F8C0D00C000C0EB
:10079000002C68B9119709F086CE20EE31E0D20125
:1007A0000E94880FDC01CB01F4E0B695A7959795E0
:1007B0008795FA95D1F720E030E0B901EAE94E9E3D
:1007C000040C611D5E9E600D711D1124650D711D6F
:1007D000860F971FA11DB11D893E43E09407A10517
:1007E000B10508F434C0885E9340A109B10942E024
:1007F000B695A795979587954A95D1F747E0849F39
:10080000080E211D949F200D311D1124290F311D2B
:1008100060914E0170E0860F971F820F931F4091E9
:10082000C0015091C1016091C2017091C301292F93
:100830003327420F531F611D711D4093C001509318
:10084000C1016093C2017093C30180934E017894FB
:100850000E94A208F301708B6787DF91CF911F91EF
:100860000F91EF90DF90CF90BF90AF908F907F90DF
:100870006F905F904F900895FC01848DDF01A80F69
:10088000B11DA35ABF4F2C91848D90E001968F73B8
:100890009927848FA689B7892C93A089B1898C91D7
:1008A000837080648C93938D848D981306C0028826
:1008B000F389E02D80818F7D808308954F925F9230
:1008C0006F927F928F929F92AF92BF92CF92DF9260
:1008D000EF92FF92CF93DF9381E480937C0080912D
:1008E0007A00806480937A0080917A0086FDFCCF44
:1008F000809178002091790090E0922B803921E05E
:10090000920710F480E991E090934D0180934C019F
:1009100080914C0190914D018D3B924030F08CEBD9
:1009200092E090934D0180934C0120914C013091C5
:100930004D01C901A0E0B0E09C01AD01205931405A
:1009400041095109ACEFB0E00E94140F2CE231E0F4
:1009500040E050E00E94F50E69017A0183E0C80E84
:10096000D11CE11CF11CD0924D01C0924C01809130
:100970006A02813019F0823051F173C080916D02AA
:1009800090916B02891718F48F5F80936D028091AC
:100990006C0220916E0290916F02E22FF92FE80F06
:1009A000F11DE80FF11DD182C08220916C02422F0F
:1009B00050E080916B0290E001974817590719F4B5
:1009C00010926C024EC02F5F20936C024AC080913F
:1009D0006D02C0916E02D0916F02811106C081E05C
:1009E00080936D02D982C8823AC060916B0270E038
:1009F00080E090E00E94A31020E030E048EC52E458
:100A00000E9402104B015C016881798180E090E0D6
:100A10000E94A3102B013C01A501940160E070E04D
:100A200080E89FE30E94950F9B01AC01C301B201D6
:100A30000E9431112B013C01B60180E090E00E9440
:100A4000A310A50194010E9431119B01AC01C301C7
:100A5000B2010E94960F0E94741079836883DB8232
:100A6000CA8280916A02813049F0823001F5E091BA
:100A70006E02F0916F02808191811BC060916D02C6
:100A800070E0E0916E02F0916F0220E030E080E0D3
:100A900090E0261737073CF441915191840F951F40
:100AA0002F5F3F4FF6CF0E94600FCB0102C080E066
:100AB00090E0DF91CF91FF90EF90DF90CF90BF90CB
:100AC000AF909F908F907F906F905F904F90089520
:100AD000CF92DF92EF92FF920F931F93CF93DF930A
:100AE0006C017A018B01C0E0D0E0CE15DF0581F00A
:100AF000D8016D918D01D601ED91FC910190F081AD
:100B0000E02DC6010995892B11F02196EECF7E01CB
:100B1000C701DF91CF911F910F91FF90EF90DF9070
:100B2000CF900895089580E090E00895FC01538DE2
:100B3000448D252F30E0842F90E0821B930B5417B7
:100B400010F0CF9608950197089586EC91E00E94E9
:100B5000DD0021E0892B09F420E0822F08950E9416
:100B6000BF12EF92FF920F931F93CF93DF93EC018D
:100B700081E0888F9B8D8C8D981305C0E889F98959
:100B8000808185FD26C0F62E0B8D10E00F5F1F4F74
:100B90000F731127E02E8C8DE8120CC00FB607FCE6
:100BA000FACFE889F989808185FFF5CFCE010E94CF
:100BB0003C04F1CF8B8DFE01E80FF11DE35AFF4F8E
:100BC000F0829FB7F8940B8FEA89FB89808180625D
:100BD0000AC09FB7F894EE89FF896083E889F98994
:100BE00080818370806480839FBF81E090E0DF918B
:100BF000CF911F910F91FF90EF900895CF93DF93C6
:100C0000EC01888D8823C9F0EA89FB89808185FD04
:100C100005C0A889B9898C9186FD0FC00FB607FC65
:100C2000F5CF808185FFF2CFA889B9898C9185FFA6
:100C3000EDCFCE010E943C04E7CFDF91CF91089524
:100C40001F920F920FB60F9211242F933F934F9341
:100C50005F936F937F938F939F93AF93BF93EF9324
:100C6000FF9386EC91E00E943C04FF91EF91BF91CD
:100C7000AF919F918F917F916F915F914F913F9134
:100C80002F910F900FBE0F901F9018951F920F92EB
:100C90000FB60F9211242F938F939F93EF93FF938F
:100CA000E091D601F091D7018081E091DC01F091D3
:100CB000DD0182FD12C090818091DF018F5F8F7313
:100CC0002091E001821751F0E091DF01F0E0EA535A
:100CD000FE4F958F8093DF0101C08081FF91EF91DE
:100CE0009F918F912F910F900FBE0F901F9018958D
:100CF000833081F028F4813099F08230A1F008959A
:100D00008730A9F08830B9F08430D1F48091800028
:100D10008F7D03C0809180008F778093800008953D
:100D200084B58F7702C084B58F7D84BD089580918E
:100D3000B0008F7703C08091B0008F7D8093B000AA
:100D400008958F929F92AF92BF920F931F93CF936C
:100D5000DF93CDB7DEB7A1970FB6F894DEBF0FBE15
:100D6000CDBF19A2423008F44AE08E010F5D1F4F3B
:100D7000842E912CA12CB12CA50194010E941F0F4F
:100D8000E62FB901CA0101501109EA3014F4E05DFF
:100D900001C0E95CD801EC93232B242B252B61F7B0
:100DA0000115110571F0F80101900020E9F7319764
:100DB000AF01401B510BB80186EC91E00E94680521
:100DC00002C080E090E0A1960FB6F894DEBF0FBE9F
:100DD000CDBFDF91CF911F910F91BF90AF909F90AA
:100DE0008F900895682F86EC91E00C94B105CF9315
:100DF000DF93282F30E0F901E255FF4F8491F9018C
:100E0000E656FF4FD491F901EA57FF4FC491CC2326
:100E100091F081110E947806EC2FF0E0EE0FFF1F99
:100E2000E458FF4FA591B491EC91ED2381E090E05F
:100E300021F480E002C080E090E0DF91CF9108953E
:100E40001F93CF93DF93282F30E0F901E255FF4F36
:100E50008491F901E656FF4FD491F901EA57FF4F0B
:100E6000C491CC23C1F0162F81110E947806EC2F7B
:100E7000F0E0EE0FFF1FEE58FF4FA591B4919FB722
:100E8000F894111104C08C91D095D82302C0EC9134
:100E9000DE2BDC939FBFDF91CF911F9108950F93BD
:100EA0001F93CF93DF93EC01162F08E0888199817F
:100EB0008F3F2FEF920739F017FF02C061E001C0AA
:100EC00060E00E942007110F8A819B818F3F2FEFE6
:100ED000920739F00E94F70621E0892B09F420E0FF
:100EE000122B61E08C810E9420078E819F818230CD
:100EF000910538F0880F991F880F991F0597019762
:100F0000F1F760E08C810E9420078E819F81823002
:100F1000910538F0880F991F880F991F0597019741
:100F2000F1F7015009F0C2CF812FDF91CF911F91CE
:100F30000F910895CF93909167029923A1F020918A
:100F400068023091690221153105C9F0C62F682F5A
:100F5000C9010E944F076C2F80916802909169022D
:100F6000CF910C944F078EBD00000DB407FEFDCF4E
:100F70008EB56EBD00000DB407FEFDCF8EB5CF91CE
:100F800008950F931F93CF93DF93D82F80EE860F92
:100F90008B3538F4E62F660FFF0BEE55FF4FC491EB
:100FA00001C0C1E04111C06860E0809164020E940C
:100FB00020078D2F877018E0181BD695D695D695EB
:100FC00000E0D01731F060E080E00E949A070F5FE8
:100FD000F8CF6C2F812F0E949A0700E010E0CD2FF0
:100FE000D0E08091630290E08C1B9D0B0197081765
:100FF00019073CF460E080E00E949A070F5F1F4FE2
:10100000F0CF61E080916402DF91CF911F910F9149
:101010000C9420070F931F93CF93DF938C01C0E0B4
:10102000809163022C2F30E048E0849FC00111249E
:10103000281739074CF5F8016081662389F0D181C2
:1010400041E0DE3209F040E08C2F0E94C107DE3221
:1010500019F00F5F1F4F02C00E5F1F4FCF5FE0CF31
:10106000809163022C2F30E0F8E08F9FC0011124A3
:10107000281739074CF4D1E0DC0F40E060E28C2FF8
:101080000E94C107CD2FECCFDF91CF911F910F911F
:1010900008951F93CF93DF93D82F162F60E0809190
:1010A00064020E942007C0E080916302C81730F4F8
:1010B000612F8D2F0E949A07CF5FF6CF61E080915C
:1010C0006402DF91CF911F910C942007CF93DF939F
:1010D00090E0FC01E656FF4F2491FC01EA57FF4FD8
:1010E0008491882361F190E0880F991FFC01E859F1
:1010F000FF4FC591D491FC01EE58FF4FA591B491DB
:10110000611109C09FB7F894888120958223888354
:10111000EC912E230BC0623061F49FB7F894888164
:10112000322F309583238883EC912E2B2C939FBFF5
:1011300006C08FB7F894E8812E2B28838FBFDF91EC
:10114000CF9108953FB7F89480917E0290917F02ED
:10115000A0918002B091810226B5A89B05C02F3FC7
:1011600019F00196A11DB11D3FBFBA2FA92F982FCD
:101170008827820F911DA11DB11DBC01CD0142E048
:10118000660F771F881F991F4A95D1F708958F9290
:101190009F92AF92BF92CF92DF92EF92FF926B013C
:1011A0007C010E94A2084B015C01C114D104E1043E
:1011B000F104F1F00E94A208DC01CB018819990921
:1011C000AA09BB09883E9340A105B10570F321E04F
:1011D000C21AD108E108F10888EE880E83E0981E53
:1011E000A11CB11CC114D104E104F10419F7DDCF35
:1011F000FF90EF90DF90CF90BF90AF909F908F9037
:1012000008952FB7F8946091C0017091C101809149
:10121000C2019091C3012FBF08953F924F925F92F8
:101220006F927F928F929F92AF92BF92CF92DF92F6
:10123000EF92FF920F931F93CF93DF9300D01F92F3
:10124000CDB7DEB7F0907002809173029091740276
:10125000A0917502B0917602892B8A2B8B2BE9F035
:101260000E94A208009188021091890220918A02AE
:1012700030918B02DC01CB01801B910BA20BB30BD5
:1012800000917302109174022091750230917602E0
:1012900080179107A207B307B8F20E94A2086093D3
:1012A00088027093890280938A0290938B02E09166
:1012B0007B02F0917C02309759F040917702509177
:1012C00078026091790270917A028F2D0995F82E3B
:1012D0000091C4011091C5014F2C512C612C712C2F
:1012E0000115110509F45FC0D8011C96EC901C97FC
:1012F00080917102909172028436910510F41C96CF
:101300001C92D801ED91FC91A280B38019821A82BF
:101310001B82F11014C0F8014585568562817381E6
:101320009E012F5F3F4FC801F5010995D8011C961A
:10133000EC921C9714960D911C911597D1CFF80142
:101340003696CE0101966C01480199E0890E911CF8
:101350002191222309F132803320F1F0822F90E095
:10136000A0E0B0E09C01AD012F5F3F4F4F4F5F4FBA
:10137000C301B2010E94500F9B01AC01832D90E08C
:10138000A0E0B0E0BC01CD016F5F7F4F8F4F9F4F5A
:101390000E94500FD6018C93BFEFCB1ADB0AE815E1
:1013A000F905B1F6B8CF80918602909187028C0141
:1013B0000F5F1F4F10938702009386024997B4F185
:1013C0000E940109C0908202D0908302E0908402C2
:1013D000F09085029B01AC012C193D094E095F0973
:1013E00021F421E030E040E050E088EE93E0089FF7
:1013F000B001099F700D189F700D1124072E000C6D
:10140000880B990B0E941F0F309372022093710278
:1014100010928702109286020E9401096093820254
:101420007093830280938402909385020F900F90B3
:101430000F90DF91CF911F910F91FF90EF90DF9070
:10144000CF90BF90AF909F908F907F906F905F9064
:101450004F903F9008951F920F920FB60F92112454
:101460002F933F938F939F93AF93BF938091C0012E
:101470009091C101A091C201B091C30130917D0250
:1014800023E0230F2D3720F40196A11DB11D05C0C7
:1014900026E8230F0296A11DB11D20937D028093A3
:1014A000C0019093C101A093C201B093C301809188
:1014B0007E0290917F02A0918002B09181020196FC
:1014C000A11DB11D80937E0290937F02A0938002A4
:1014D000B0938102BF91AF919F918F913F912F91D6
:1014E0000F900FBE0F901F90189560E08CE00E9447
:1014F00049088091680290916902009731F00E943A
:10150000361210926902109268028091670281116E
:1015100011C09FB7F89480915001882319F0815031
:101520008093500180915001811103C08CB58F7B55
:101530008CBD9FBF80916E0290916F02009711F059
:101540000C9436120895789484B5826084BD84B575
:10155000816084BD85B5826085BD85B5816085BDAE
:1015600080916E00816080936E0010928100809166
:1015700081008260809381008091810081608093EE
:101580008100809180008160809380008091B10013
:1015900084608093B1008091B00081608093B0003E
:1015A00080917A00846080937A0080917A008260D2
:1015B00080937A0080917A00816080937A00809194
:1015C0007A00806880937A001092C10060E08FE01A
:1015D0000E94660831E3C32E31E0D32E09E211E008
:1015E00061E0F80181918F010E946608F1E001330A
:1015F0001F07B1F7E091D601F091D70182E0808317
:10160000E091D201F091D3011082E091D401F091E8
:10161000D50180E180831092DE01E091DA01F09142
:10162000DB0186E08083E091D801F091D9018081CF
:1016300080618083E091D801F091D9018081886038
:101640008083E091D801F091D90180818068808306
:10165000E091D801F091D90180818F7D80838091C4
:101660006401811145C010925601109255018FEF0F
:101670008093590180935A0180935B0180935C01B0
:1016800080935D0180935E0181E080935F01109201
:1016900061011092600110925801109257018091DF
:1016A000C4019091C501892B31F483E591E09093B9
:1016B000C5018093C401E0915101F091520130972E
:1016C00021F083E591E09583848383E591E0909315
:1016D00052018093510110926301109262018BE1DB
:1016E00091E0909354018093530181E080936401D1
:1016F000389A88E791E090935601809355018EE0E7
:1017000090E09093610180936001809173029091C9
:101710007402A0917502B0917602843C29E0920790
:10172000A105B10520F484EC99E0A0E0B0E080933D
:10173000730290937402A0937502B093760261E0F5
:10174000809164020E94660861E0809164020E94B8
:10175000200780916702882309F443C080916802C2
:1017600090916902892BF9F48AE090E00E949E1121
:10177000FC018091660290E02091650230E03183A7
:1017800020832FEF3FEF338322839583848384E08C
:1017900090E0A0E0B0E086839783A087B187F093C4
:1017A0006902E09368020091680210916902F801F1
:1017B000808191818F3FFFEF9F0719F061E00E94C8
:1017C0006608F801828193818F3FFFEF9F0719F030
:1017D00060E00E94660861E0F80184810E9466086A
:1017E00033C0DFB7F89480915001811127C0E0E940
:1017F000F0E08491E4EAF0E09491E82FF0E0EE0F5D
:10180000FF1FE859FF4FA591B491EC91E92321F412
:1018100061E08AE00E94200761E08AE00E94660899
:101820008CB580618CBD8CB580648CBD61E08DE031
:101830000E94660861E08BE00E946608809150017A
:101840008F5F80935001DFBF67E08BE00E94490803
:1018500060E089E00E94490860E08FE00E9449084A
:101860006FE08AE00E9449088BE491E00E940A0838
:1018700061E08CE00E94490865E08AE00E94490826
:1018800009E211E061E0F80181918F010E942007D7
:10189000F1E001331F07B1F7E8E7F1E081E1808370
:1018A00081838283339621E0E23AF207C1F70E94F6
:1018B0000D09D0E310E041E06D2F812F0E94C10798
:1018C0001F5F1830C1F762E370E080E090E00E9493
:1018D000C708DF5FDA3371F7D0E041E068E38D2FAE
:1018E0000E94C107DF5FD830C1F764EF71E080E08C
:1018F00090E00E94C708E8E7F1E0108211821282AE
:10190000339681E0E23AF807C1F70E940D0983E4BB
:1019100091E00E940A0809E211E060E0F80181917B
:101920008F010E942007C016D106B9F782E080938C
:101930006A028AE080936B0284E090E00E949E112C
:1019400090936F0280936E02FC01118210821382C9
:10195000128210926D0233243394DAEAAD2ED1E074
:10196000BD2E12E1612E712C07E0402E83E0582E2F
:10197000D2E080910001882309F444C0843609F044
:10198000DFC10E94010900916C0110916D0120914D
:101990006E0130916F01061717072807390700F508
:1019A0000E940109DC01CB0188519C4FAF4FBF4F12
:1019B00080936C0190936D01A0936E01B0936F01C1
:1019C0008CE40E94F20680E30E94F20680E30E940B
:1019D000F2064AE067E070E080E090E00E94A10635
:1019E00086EC91E00E94DD00181619060CF0A8C1E3
:1019F00086EC91E00E94BB008B3409F0A1C11092EB
:101A000000019EC1B2EAEB2EB1E0FB2E09E211E02B
:101A10004701F40181914F01811102C060E003C0D0
:101A2000813029F461E0F80180810E9420070F5F76
:101A30001F4FC016D10669F70E9401090091740179
:101A400010917501209176013091770106171707E3
:101A50002807390788F00E94010900917001109150
:101A60007101209172013091730106171707280741
:101A7000390708F050C02FC00E940109DC01CB01DA
:101A80008C509E4FAF4FBF4F809374019093750160
:101A9000A0937601B0937701A9E28A2EA1E09A2E55
:101AA00002EA11E0F80181918F01823061F4F401C2
:101AB0002080822D0E94F70661E0892B09F060E00A
:101AC000822D0E942007FFEF8F1A9F0A21E00A3A19
:101AD000120741F7C0CF0E940109DC01CB01C29679
:101AE000A11DB11D8093700190937101A0937201AB
:101AF000B0937301F9E28F2EF1E09F2E02EA11E01C
:101B0000F80181918F01833071F0FFEF8F1A9F0AE6
:101B1000A016B106A9F786EC91E00E94DD00181628
:101B2000190674F021C0F4012080822D0E94F7066E
:101B300061E0892B09F060E0822D0E942007E5CF4B
:101B40001091BF0186EC91E00E94BB00E12FF0E014
:101B5000E555FE4F80838D3011F08A3011F43092BC
:101B6000AA011F5F1093BF018091AA01882309F485
:101B7000E7C01092AA011092BF018091AB0180359D
:101B800011F5E091AC018091AD01833531F4F0E0C5
:101B9000EE55FE4F21E02083D3C0823429F4F0E0DB
:101BA000EE55FE4FD083CCC0863429F4F0E0EE55DC
:101BB000FE4F5082C5C0823509F0C2C0F0E0EE553C
:101BC000FE4F1082BDC08C3409F044C0E8E7F1E05C
:101BD000108211821282339681E0E23AF807C1F74F
:101BE0006091AD015091AE014091AF017091AC0197
:101BF000783008F077E0A42DA71BA73021F4872FB9
:101C000090E007960FC08A2F90E09C01220F331FAF
:101C1000280F391FF901E858FE4F60835183428332
:101C2000AF5FEBCFEA2FF0E0E817F90764F49F010C
:101C3000220F331FE20FF31FE858FE4F60835183DA
:101C40004283AF5FEFCF0E945E04809370020E94D8
:101C50000D0976C0843509F05BC083E491E00E94F1
:101C60000A080E945E04B3010E94600F6F708AE050
:101C70000E94490801E080E0202F30E011E0100FC1
:101C8000F901E555FE4F81111CC0608192E0F92EEB
:101C9000F00EE12FF0E0E555FE4FC081CE3261F449
:101CA00041E00E94C107EF2DF0E0E555FE4FC081F5
:101CB00083E0F82EF00E47C040E080E00E94C107AC
:101CC00042C0E080FF24F394F80E9EE2E9120CC0BB
:101CD00041E06C2F0E94C1070E5FE12FF0E0E55557
:101CE000FE4FC0818F2D07C040E06C2F0E94C107BE
:101CF0008F2DCE2D012FE8E0FE1611F091E001C0EE
:101D000090E0CA30E9F0CD30D9F09111B5CF18C0CC
:101D10008235B1F483E491E00E940A08E8E7F1E03B
:101D2000108211821282339621E0E23AF207C1F763
:101D30000E940D09F70111927F01AE16BF06D1F77F
:101D40000E94E90016CE0F2D81E0D8CFE6ECF1E03D
:101D50001382128288EE93E0A0E0B0E08483958342
:101D6000A683B78385E391E09183808385EC90E03F
:101D70009587848784EC90E09787868780EC90E055
:101D8000918B808B81EC90E0938B828B82EC90E046
:101D9000958B848B86EC90E0978B868B118E128EC0
:101DA000138E148EEAE6F2E08AE0818312821382B7
:101DB000E3E6F2E081E080839CE091839BE0928304
:101DC0009DE09383848316821582E0E7F2E08FEF33
:101DD000808312821182148613868FEF9FEFDC01BD
:101DE00087839087A187B2870895052E97FB1EF4FD
:101DF00000940E940C0F57FD07D00E941F0F07FC94
:101E000003D04EF40C940C0F5095409530952195CD
:101E10003F4F4F4F5F4F0895909580957095619516
:101E20007F4F8F4F9F4F08950E94410FA59F900DA8
:101E3000B49F900DA49F800D911D11240895A1E2DF
:101E40001A2EAA1BBB1BFD010DC0AA1FBB1FEE1F34
:101E5000FF1FA217B307E407F50720F0A21BB30B7F
:101E6000E40BF50B661F771F881F991F1A9469F7FB
:101E700060957095809590959B01AC01BD01CF0157
:101E80000895A29FB001B39FC001A39F700D811D53
:101E90001124911DB29F700D811D1124911D089573
:101EA000DB018F939F930E94140FBF91AF91A29F6C
:101EB000800D911DA39F900DB29F900D1124089548
:101EC000AA1BBB1B51E107C0AA1FBB1FA617B70760
:101ED00010F0A61BB70B881F991F5A95A9F780957C
:101EE0009095BC01CD01089597FB072E16F4009440
:101EF00007D077FD09D00E94600F07FC05D03EF4A3
:101F0000909581959F4F0895709561957F4F0895A5
:101F10000E94410FB7FF0895821B930B0895EE0FA7
:101F2000FF1F0590F491E02D09945058BB27AA2774
:101F30000E94AD0F0C94F7100E94E91038F00E9437
:101F4000F01020F039F49F3F19F426F40C94E610B9
:101F50000EF4E095E7FB0C94E010E92F0E940811C5
:101F600058F3BA17620773078407950720F079F4CE
:101F7000A6F50C942A110EF4E0950B2EBA2FA02D85
:101F80000B01B90190010C01CA01A0011124FF2726
:101F9000591B99F0593F50F4503E68F11A16F04021
:101FA000A22F232F342F4427585FF3CF4695379520
:101FB0002795A795F0405395C9F77EF41F16BA0BE5
:101FC000620B730B840BBAF09150A1F0FF0FBB1F93
:101FD000661F771F881FC2F70EC0BA0F621F731FDC
:101FE000841F48F4879577956795B795F7959E3F39
:101FF00008F0B0CF9395880F08F09927EE0F9795CA
:10200000879508950E9416100C94F7100E94F01006
:1020100058F00E94E91040F029F45F3F29F00C9439
:10202000E01051110C942B110C94E6100E94081131
:1020300068F39923B1F3552391F3951B550BBB27F7
:10204000AA2762177307840738F09F5F5F4F220F3C
:10205000331F441FAA1FA9F335D00E2E3AF0E0E833
:1020600032D091505040E695001CCAF72BD0FE2F7D
:1020700029D0660F771F881FBB1F26173707480711
:10208000AB07B0E809F0BB0B802DBF01FF279358C9
:102090005F4F3AF09E3F510578F00C94E0100C949D
:1020A0002B115F3FE4F3983ED4F3869577956795BF
:1020B000B795F7959F5FC9F7880F911D96958795FE
:1020C00097F90895E1E0660F771F881FBB1F62171D
:1020D00073078407BA0720F0621B730B840BBA0BDB
:1020E000EE1F88F7E09508950E94101188F09F5721
:1020F00098F0B92F9927B751B0F0E1F0660F771F2C
:10210000881F991F1AF0BA95C9F714C0B13091F021
:102110000E942A11B1E008950C942A11672F782F9C
:102120008827B85F39F0B93FCCF3869577956795E6
:10213000B395D9F73EF490958095709561957F4F52
:102140008F4F9F4F0895E89409C097FB3EF49095F8
:102150008095709561957F4F8F4F9F4F9923A9F080
:10216000F92F96E9BB279395F6958795779567950F
:10217000B795F111F8CFFAF4BB0F11F460FF1BC053
:102180006F5F7F4F8F4F9F4F16C0882311F096E9E6
:1021900011C0772321F09EE8872F762F05C0662394
:1021A00071F096E8862F70E060E02AF09A95660F4D
:1021B000771F881FDAF7880F9695879597F9089506
:1021C00097F99F6780E870E060E008959FEF80ECEA
:1021D000089500240A94161617061806090608958D
:1021E00000240A9412161306140605060895092EF3
:1021F0000394000C11F4882352F0BB0F40F4BF2B62
:1022000011F460FF04C06F5F7F4F8F4F9F4F0895A1
:1022100057FD9058440F551F59F05F3F71F0479597
:10222000880F97FB991F61F09F3F79F0879508957C
:10223000121613061406551FF2CF4695F1DF08C09B
:10224000161617061806991FF1CF869571056105B8
:1022500008940895E894BB2766277727CB0197F960
:1022600008950E9444110C94F7100E94E91038F070
:102270000E94F01020F0952311F00C94E0100C94C3
:10228000E61011240C942B110E94081170F3959FF5
:10229000C1F3950F50E0551F629FF001729FBB275D
:1022A000F00DB11D639FAA27F00DB11DAA1F649FF9
:1022B0006627B00DA11D661F829F2227B00DA11DAC
:1022C000621F739FB00DA11D621F839FA00D611D32
:1022D000221F749F3327A00D611D231F849F600D53
:1022E000211D822F762F6A2F11249F5750409AF07C
:1022F000F1F088234AF0EE0FFF1FBB1F661F771F08
:10230000881F91505040A9F79E3F510580F00C94D2
:10231000E0100C942B115F3FE4F3983ED4F38695C4
:1023200077956795B795F795E7959F5FC1F7FE2B72
:10233000880F911D9695879597F908950F931F9390
:10234000CF93DF938230910510F482E090E0E0912A
:102350008E02F0918F0220E030E0A0E0B0E03097F4
:1023600019F1408151810281138148175907C8F042
:102370008417950769F4109731F012960C93129711
:1023800013961C9327C000938E0210938F0222C0D5
:102390002115310519F04217530718F49A01BD01B0
:1023A000EF01DF01F801DBCF21153105F9F0281B22
:1023B000390B2430310580F48A819B8161157105C8
:1023C00021F0FB019383828304C090938F0280935A
:1023D0008E02FE01329644C0FE01E20FF31F81938C
:1023E000919322503109398328833AC020918C027D
:1023F00030918D02232B41F420910301309104018F
:1024000030938D0220938C022091010130910201C2
:102410002115310541F42DB73EB74091050150918A
:102420000601241B350BE0918C02F0918D02E2171E
:10243000F307A0F42E1B3F0B2817390778F0AC01E7
:102440004E5F5F4F2417350748F04E0F5F1F5093C4
:102450008D0240938C028193919302C0E0E0F0E002
:10246000CF01DF91CF911F910F910895CF93DF930B
:10247000009709F481C0FC01329713821282A09167
:102480008E02B0918F02109781F420813181820FEA
:10249000931F20918C0230918D022817390751F536
:1024A000F0938D02E0938C0267C0ED0120E030E0F4
:1024B000CE17DF0740F44A815B819E01411551052B
:1024C000F1F0EA01F5CFD383C28340815181840FBB
:1024D000951FC817D90759F488819981840F951FD2
:1024E0000296918380838A819B81938382832115C5
:1024F000310529F4F0938F02E0938E023DC0E9018B
:10250000FB83EA8349915991C40FD51FEC17FD074E
:1025100061F480819181840F951F0296E90199836E
:102520008883828193819B838A83E0E0F0E0129626
:102530008D919C911397009719F0FD01DC01F7CF65
:102540008D919C9111979D012E5F3F4F820F931F9C
:1025500020918C0230918D022817390769F4309749
:1025600029F410928F0210928E0202C013821282FE
:10257000B0938D02A0938C02DF91CF91089581E0FA
:1025800090E0F8940C94C41210E0C0E9D0E004C0CC
:10259000FE010E948F0F2196C139D107C9F7F89427
:0225A000FFCF6B
:1025A2006400009002200000000000AF05AF05AFFC
:1025B20005BE01E201E601000000007B01370135A2
:1025C20001BE01E2013201E9010602030407080922
:1025D2000500000000B10568059605FE05DD00BB9B
:0C25E20000CF002020202020202020001E
:00000001FF
