:100000000C9491000C94B9000C94B9000C94B900B4
:100010000C94B9000C94B9000C94B9000C94B9007C
:100020000C94B9000C94B9000C94B9000C94B9006C
:100030000C94B9000C94B9000C94B9000C94B9005C
:100040000C94420A0C94B9000C9492050C946C0523
:100050000C94B9000C94B9000C94B9000C94B9003C
:100060000C94B9000C94B900000000002400270093
:100070002A0000000000250028002B0000000000DE
:1000800023002600290004040404040404040202DA
:100090000202020203030303030301020408102007
:1000A0004080010204081020010204081020000012
:1000B0000008000201000003040700000000000027
:1000C000000000010101010101014E78010101015F
:1000D00000017E306D79335B5F707F7B0101010130
:1000E000010101771F4E3D4F475E37303C010E0145
:1000F000157E6701055B073E01010127014E01786E
:10010000010801771F0D3D4F475E17103C010E019E
:10011000157E6701055B071C010101270100E91637
:10012000C31611241FBECFEFD8E0DEBFCDBF13E052
:10013000A0E0B1E0E8EAF2E302C005900D92A4333A
:10014000B107D9F725E0A4E3B3E001C01D92A636BC
:10015000B207E1F710E0C0E9D0E004C02197FE014A
:100160000E940C18CF38D107C9F70E948C0A0C9452
:1001700047190C940000CF92DF92EF92FF920F93F9
:100180001F93CF93DF936C017A018B01C0E0D0E025
:10019000CE15DF0581F0D8016D918D01D601ED916D
:1001A000FC910190F081E02DC6010995892B11F099
:1001B0002196EECF7E01C701DF91CF911F910F9164
:1001C000FF90EF90DF90CF900895089580E090E049
:1001D0000895FC01538D448D252F30E0842F90E04D
:1001E000821B930B541710F0CF9608950197089532
:1001F000FC01918D828D981761F0828DDF01A80F2F
:10020000B11D5D968C91928D9F5F9F73928F90E050
:1002100008958FEF9FEF0895FC01918D828D9817BF
:1002200031F0828DE80FF11D858D90E008958FEFFC
:100230009FEF0895FC01918D228D892F90E0805CC5
:100240009F4F821B91098F739927089585EA93E048
:100250000E941A0121E0892B09F420E0822F0895E1
:10026000FC01848DDF01A80FB11DA35ABF4F2C9153
:10027000848D90E001968F739927848FA689B78922
:100280002C93A089B1898C91837080648C93938D19
:10029000848D981306C00288F389E02D80818F7DBC
:1002A00080830895EF92FF920F931F93CF93DF9374
:1002B000EC0181E0888F9B8D8C8D981305C0E889B7
:1002C000F989808185FD26C0F62E0B8D10E00F5F29
:1002D0001F4F0F731127E02E8C8DE8120CC00FB644
:1002E00007FCFACFE889F989808185FFF5CFCE0137
:1002F0000E943001F1CF8B8DFE01E80FF11DE35A12
:10030000FF4FF0829FB7F8940B8FEA89FB898081B9
:1003100080620AC09FB7F894EE89FF896083E889FC
:10032000F98980818370806480839FBF81E090E041
:10033000DF91CF911F910F91FF90EF900895CF9390
:10034000DF93EC01888D8823C9F0EA89FB898081DD
:1003500085FD05C0A889B9898C9186FD0FC00FB6AF
:1003600007FCF5CF808185FFF2CFA889B9898C91F0
:1003700085FFEDCFCE010E943001E7CFDF91CF9115
:10038000089580E090E0892B29F00E9426018111D8
:100390000C94000008950F931F93CF93DF93209147
:1003A0009A032F5F322F377030939A0320FF02C0D9
:1003B00020E801C020E031FD2064347009F02062A3
:1003C000205FFC01EC01239600E011E064856623C8
:1003D00031F070E0C8010E94B0176F5F01C060E0AB
:1003E0006187322F369F030E30E0311D1124311109
:1003F00002C0168202C031503683662311F061506C
:1004000061873196CE17DF0709F7DF91CF911F91F2
:100410000F91089580E991E00895229A08950F932D
:100420001F93CF93DF93CDB7DEB762970FB6F894E3
:10043000DEBF0FBECDBF8C01F901DC011C968C9193
:100440007A8369835C834B835E834D8390819D8730
:1004500091819E8792819F87813029F4CE010196F8
:100460000E94CB0106C01C861B861A861986188638
:100470001F8283E0888B1A8A198AD801ED91FC913A
:100480000484F585E02DBE016F5F7F4FC80109959B
:1004900062960FB6F894DEBF0FBECDBFDF91CF914D
:1004A0001F910F9108950F931F93CF93DF93CDB7B3
:1004B000DEB762970FB6F894DEBF0FBECDBF8C01DA
:1004C000F901DC011C968C917A8369835C834B83F0
:1004D0005E834D8390819D8791819E8792819F87C6
:1004E000813029F4CE0101960E94CB0106C01C8602
:1004F0001B861A86198618861F82188A1A8A198AF4
:10050000D801ED91FC910484F585E02DBE016F5F6B
:100510007F4FC801099562960FB6F894DEBF0FBEF3
:10052000CDBFDF91CF911F910F910895FC01908174
:10053000983038F088EF890F863030F0A6E2B0E0CE
:1005400005C0A9E2B0E002C0A3E2B0E02C91422FC6
:1005500050E09E3050F09E5021E030E002C0220F6B
:10056000331F9A95E2F7332708C0977021E030E0F7
:1005700002C0220F331F9A95E2F72423352381E02E
:10058000121613060CF080E083830895CF93DF9357
:1005900000D000D000D0CDB7DEB7AB011C821D82E9
:1005A0001E82DC01ED91FC910190F081E02D198219
:1005B0001A821B829E012F5F3F4FBE016C5F7F4FEF
:1005C000099526960FB6F894DEBF0FBECDBFDF911A
:1005D000CF910895FC0185859685089580E090E08F
:1005E00008950E9442194F925F926F927F928F926C
:1005F000AF92BF92CF92DF92EF920F931F93CF9360
:10060000DF933C01EB010E94B908F3012785308993
:10061000621B730B6A307105B0F3F894E881F981BD
:1006200075B1746065B16B7F65B9CA848F812C2DFB
:10063000281B822F2F83BF844A805B801D850C85F9
:10064000DE841F5F0F5FD3949E813885A984EB847D
:100650004181D20120E0C32F522F322F3181442714
:1006600088943111380F08F43FEF8195889410FD7C
:10067000430F4795889411FD430F4795889412FDC9
:10068000430F4795889413FD430F4795889414FDB5
:10069000430F4795889415FD430F4795889416FDA1
:1006A000430F4795889417FD430F47958894232F50
:1006B0001111242F8C0D422F002C75B900C047FF5B
:1006C00065B930812227889400C000C0002C65B92C
:1006D0003111390F00C0002C75B900C046FF65B953
:1006E00008F43FEF9195889400C000C0002C65B9D4
:1006F00000FD230F00C0002C75B900C045FF65B98F
:100700002795889401FD230F00C000C0002C65B917
:100710002795889400C0002C75B900C044FF65B9C6
:1007200002FD230F2795889400C000C0002C65B9F6
:1007300003FD230F00C0002C75B900C043FF65B94D
:100740002795889404FD230F00C000C0002C65B9D4
:100750002795889400C0002C75B900C042FF65B988
:1007600005FD230F2795889400C000C0002C65B9B3
:1007700006FD230F00C0002C75B900C041FF65B90C
:100780002795889407FD230F00C000C0002C65B991
:100790002795889400C0002C75B900C040FF65B94A
:1007A000432F0111422F9A0D00C000C0002C65B9E3
:1007B00000C000C0002C75B900C047FF65B9328188
:1007C0002227889400C000C0002C65B931113C0F6D
:1007D00000C0002C75B900C046FF65B908F43FEFB2
:1007E000EB0DF11D00C000C0002C65B9D0FC230F3B
:1007F00000C0002C75B900C045FF65B927958894E5
:10080000D1FC230F00C000C0002C65B92795889447
:1008100000C0002C75B900C044FF65B9D2FC230F9D
:100820002795889400C000C0002C65B9D3FC230F25
:1008300000C0002C75B900C043FF65B927958894A6
:10084000D4FC230F00C000C0002C65B92795889404
:1008500000C0002C75B900C042FF65B9D5FC230F5C
:100860002795889400C000C0002C65B9D6FC230FE2
:1008700000C0002C75B900C041FF65B92795889468
:10088000D7FC230F00C000C0002C65B927958894C1
:1008900000C0002C75B900C040FF65B9432FD110CE
:1008A000422FC19500C000C0002C65B9CE0D00C01C
:1008B00000C075B900C047FF65B93181222788940F
:1008C00000C000C0002C65B93111380F00C0002CE9
:1008D00075B900C046FF65B908F43FEF819588946B
:1008E00000C000C0002C65B910FD230F00C0002C13
:1008F00075B900C045FF65B92795889411FD230F90
:1009000000C000C0002C65B92795889400C0002C59
:1009100075B900C044FF65B912FD230F279588946F
:1009200000C000C0002C65B913FD230F00C0002CCF
:1009300075B900C043FF65B92795889414FD230F4E
:1009400000C000C0002C65B92795889400C0002C19
:1009500075B900C042FF65B915FD230F279588942E
:1009600000C000C0002C65B916FD230F00C0002C8C
:1009700075B900C041FF65B92795889417FD230F0D
:1009800000C000C0002C65B92795889400C0002CD9
:1009900075B900C040FF65B9432F1111422F8C0D6E
:1009A00000C000C0002C65B9119709F086CE20EE7A
:1009B00031E0D2010E94E617DC01CB01F4E0B695EC
:1009C000A79597958795FA95D1F720E030E0B90182
:1009D000EAE94E9E040C611D5E9E600D711D11249E
:1009E000650D711D860F971FA11DB11D893E43E046
:1009F0009407A105B10508F434C0885E9340A109AD
:100A0000B10942E0B695A795979587954A95D1F794
:100A100047E0849F080E211D949F200D311D112455
:100A2000290F311D6091990370E0860F971F820F87
:100A3000931F40919B0350919C0360919D03709183
:100A40009E03292F3327420F531F611D711D4093B1
:100A50009B0350939C0360939D0370939E0380932C
:100A6000990378940E94B908F301708B6787DF912E
:100A7000CF911F910F91EF90DF90CF90BF90AF90EB
:100A80008F907F906F905F904F900895CF93DF93FA
:100A9000EC018981882321F09B8181E089278B8368
:100AA0009B818C81992351F0811111C00E94B9085A
:100AB00069877A878B879C871A8A09C0882339F0CF
:100AC0000E94B9086D877E878F87988B198A8B81E2
:100AD0008C83DF91CF9108951F920F920FB60F92E2
:100AE00011242F933F934F935F936F937F938F9333
:100AF0009F93AF93BF93EF93FF9385EA93E00E9498
:100B00003001FF91EF91BF91AF919F918F917F91B4
:100B10006F915F914F913F912F910F900FBE0F906A
:100B20001F9018951F920F920FB60F9211242F93BA
:100B30008F939F93EF93FF93E091B503F091B603EA
:100B40008081E091BB03F091BC0382FD12C09081D3
:100B50008091BE038F5F8F732091BF03821751F086
:100B6000E091BE03F0E0EB55FC4F958F8093BE0300
:100B700001C08081FF91EF919F918F912F910F90F4
:100B80000FBE0F901F901895CF92DF92EF92FF92B9
:100B90000F931F93CF93DF93EB017B0124E0E20ED1
:100BA000F11C8B016C01C61AD70AC601800F911F78
:100BB0000E948A17F80181938F01EE15FF05A9F7AE
:100BC000CE01DF91CF911F910F91FF90EF90DF90B9
:100BD000CF900895AF92BF92DF92EF92FF920F9362
:100BE0001F93CF93DF93EC017B018B015C0184E0C9
:100BF000A80EB11CF801D1908F01CE010E948A1776
:100C0000D81621F06D2DCE010E9492172196CA159B
:100C1000DB0581F7C701DF91CF911F910F91FF9005
:100C2000EF90DF90BF90AF900895CF93DF93C9E42A
:100C3000D4E0CE010E949602CE010E944605639642
:100C400084E0C238D807A9F7DF91CF910895EF92D9
:100C5000FF920F931F93CF93DF93C2E8D4E08AE40F
:100C6000E82E85E0F82E8E01C8010E949602075EEC
:100C70001F4FE016F106C1F7CE010E9446056996A6
:100C8000EC16FD06C9F7DF91CF911F910F91FF90F0
:100C9000EF9008950F931F93FC018189811119C072
:100CA00081E0818B45855685678570898185928530
:100CB000A385B485481B590B6A0B7B0B81E005812A
:100CC000168127813085041715072607370708F492
:100CD00080E01F910F910895833081F028F48130D6
:100CE00099F08230A1F008958730A9F08830B9F0EA
:100CF0008430D1F4809180008F7D03C0809180008A
:100D00008F7780938000089584B58F7702C084B573
:100D10008F7D84BD08958091B0008F7703C080914E
:100D2000B0008F7D8093B0000895009769F0FC01BA
:100D300001900020E9F73197AF01481B590BBC0126
:100D400085EA93E00C94BB0080E090E008958F92D8
:100D50009F92AF92BF920F931F93CF93DF93CDB724
:100D6000DEB7A1970FB6F894DEBF0FBECDBF19A2B4
:100D7000423008F44AE08E010F5D1F4F842E912C03
:100D8000A12CB12CA50194010E94C417E62FB90132
:100D9000CA0101501109EA3014F4E05D01C0E95CB8
:100DA000D801EC93232B242B252B61F7C8010E943B
:100DB0009506A1960FB6F894DEBF0FBECDBFDF91AA
:100DC000CF911F910F91BF90AF909F908F900895FA
:100DD0000C949506CF93DF93682F70E080E090E04D
:100DE0004AE00E94A706EC0181E393E00E94950689
:100DF0008C0F9D1FDF91CF910895CF93DF934AE031
:100E00000E94A706EC0181E393E00E9495068C0FF7
:100E10009D1FDF91CF910895CF93DF930E94950698
:100E2000EC0181E393E00E9495068C0F9D1FDF91FA
:100E3000CF9108951F93CF93DF93282F30E0F901CE
:100E4000E255FF4F8491F901E656FF4FD491F90125
:100E5000EA57FF4FC491CC23C1F0162F81110E9495
:100E60006C06EC2FF0E0EE0FFF1FEE58FF4FA59140
:100E7000B4919FB7F894111104C08C91D095D823E8
:100E800002C0EC91DE2BDC939FBFDF91CF911F91CD
:100E90000895EF92FF920F931F93CF93DF93EC018E
:100EA000162F08E0888199818F3F2FEF920739F044
:100EB00017FF02C061E001C060E00E941A07110F35
:100EC0002A813B812F3F8FEF380701F13327F9014A
:100ED000E255FF4F8491F901E656FF4FE490F90186
:100EE000EA57FF4FF490FF2079F081110E946C06C1
:100EF000EF2DF0E0EE0FFF1FE458FF4FA591B491E6
:100F0000EC91EE2281E009F480E0182B61E08C8105
:100F10000E941A078E819F818230910538F0880FD8
:100F2000991F880F991F05970197F1F760E08C8151
:100F30000E941A078E819F818230910538F0880FB8
:100F4000991F880F991F05970197F1F7015009F034
:100F5000A9CF812FDF91CF911F910F91FF90EF903B
:100F60000895CF93909146049923A1F020914704CE
:100F70003091480421153105C9F0C62F682FC901E9
:100F80000E9449076C2F8091470490914804CF91AB
:100F90000C9449078EBD00000DB407FEFDCF8EB541
:100FA0006EBD00000DB407FEFDCF8EB5CF91089544
:100FB0001F93CF93DF93D82F162F60E080914304C7
:100FC0000E941A07C0E080914204C81730F4612FD4
:100FD0008D2F0E94B107CF5FF6CF61E0809143046F
:100FE000DF91CF911F910C941A070F931F93CF930A
:100FF000DF93D82F80EE860F8B3538F4E62F660FFF
:10100000FF0BEE55FF4FC49101C0C1E04111C06814
:1010100060E0809143040E941A078D2F877018E0CA
:10102000181BD695D695D69500E0D01731F060E024
:1010300080E00E94B1070F5FF8CF6C2F812F0E94D4
:10104000B10700E010E0CD2FD0E08091420490E0A5
:101050008C1B9D0B0197081719073CF460E080E09A
:101060000E94B1070F5F1F4FF0CF61E080914304F2
:10107000DF91CF911F910F910C941A070F931F933B
:10108000CF93DF938C01C0E0809142042C2F30E09D
:1010900048E0849FC0011124281739074CF5F80156
:1010A0006081662389F0D18141E0DE3209F040E0C1
:1010B0008C2F0E94F507DE3219F00F5F1F4F02C020
:1010C0000E5F1F4FCF5FE0CF809142042C2F30E0A6
:1010D000F8E08F9FC0011124281739074CF4D1E0A4
:1010E000DC0F40E060E28C2F0E94F507CD2FECCFA3
:1010F000DF91CF911F910F910895CF93DF9390E0EF
:10110000FC01E656FF4F2491FC01EA57FF4F849102
:10111000882361F190E0880F991FFC01E859FF4F87
:10112000C591D491FC01EE58FF4FA591B491611186
:1011300009C09FB7F8948881209582238883EC9119
:101140002E230BC0623061F49FB7F8948881322F50
:10115000309583238883EC912E2B2C939FBF06C060
:101160008FB7F894E8812E2B28838FBFDF91CF9122
:1011700008953FB7F89480919F039091A003A091A8
:10118000A103B091A20326B5A89B05C02F3F19F07B
:101190000196A11DB11D3FBFBA2FA92F982F8827F7
:1011A000820F911DA11DB11DBC01CD0142E0660F52
:1011B000771F881F991F4A95D1F708958F929F92A4
:1011C000AF92BF92CF92DF92EF92FF926B017C01C0
:1011D0000E94B9084B015C01C114D104E104F1047F
:1011E000F1F00E94B908DC01CB0188199909AA091C
:1011F000BB09883E9340A105B10570F321E0C21AF6
:10120000D108E108F10888EE880E83E0981EA11C41
:10121000B11CC114D104E104F10419F7DDCFFF9032
:10122000EF90DF90CF90BF90AF909F908F900895F8
:101230002FB7F89460919B0370919C0380919D035C
:1012400090919E032FBF08953F924F925F926F92AD
:101250007F928F929F92AF92BF92CF92DF92EF9246
:10126000FF920F931F93CF93DF9300D01F92CDB7C0
:10127000DEB7F0904A0580914D0590914E05A09102
:101280004F05B0915005892B8A2B8B2BE9F00E94DA
:10129000B90800915D0510915E0520915F053091C0
:1012A0006005DC01CB01801B910BA20BB30B0091FD
:1012B0004D0510914E0520914F0530915005801736
:1012C0009107A207B307B8F20E94B90860935D05C1
:1012D00070935E0580935F0590936005E0915505DE
:1012E000F0915605309759F04091510550915205B3
:1012F00060915305709154058F2D0995F82E00913A
:10130000A3031091A4034F2C512C612C712C0115B7
:10131000110509F45FC0D8011C96EC901C978091D0
:101320004B0590914C058436910510F41C961C9247
:10133000D801ED91FC91A280B38019821A821B82A0
:10134000F11014C0F80145855685628173819E01B4
:101350002F5F3F4FC801F5010995D8011C96EC920B
:101360001C9714960D911C911597D1CFF8013696C4
:10137000CE0101966C01480199E0890E911C2191E2
:10138000222309F132803320F1F0822F90E0A0E097
:10139000B0E09C01AD012F5F3F4F4F4F5F4FC30146
:1013A000B2010E94A0179B01AC01832D90E0A0E048
:1013B000B0E0BC01CD016F5F7F4F8F4F9F4F0E9408
:1013C000A017D6018C93BFEFCB1ADB0AE815F905FD
:1013D000B1F6B8CF80915B0590915C058C010F5FF1
:1013E0001F4F10935C0500935B054997B4F10E9471
:1013F0001809C0905705D0905805E0905905F09015
:101400005A059B01AC012C193D094E095F0921F4D5
:1014100021E030E040E050E088EE93E0089FB0012A
:10142000099F700D189F700D1124072E000C880B5A
:10143000990B0E94C41730934C0520934B051092D2
:101440005C0510925B050E94180960935705709324
:1014500058058093590590935A050F900F900F905F
:10146000DF91CF911F910F91FF90EF90DF90CF9080
:10147000BF90AF909F908F907F906F905F904F90B4
:101480003F9008951F920F920FB60F9211242F9341
:101490003F938F939F93AF93BF9380919B039091C2
:1014A0009C03A0919D03B0919E033091610523E0C0
:1014B000230F2D3720F40196A11DB11D05C026E88C
:1014C000230F0296A11DB11D2093610580939B03FC
:1014D00090939C03A0939D03B0939E0380919F03E0
:1014E0009091A003A091A103B091A2030196A11D28
:1014F000B11D80939F039093A003A093A103B09389
:10150000A203BF91AF919F918F913F912F910F9027
:101510000FBE0F901F901895789484B5826084BD9B
:1015200084B5816084BD85B5826085BD85B58160E7
:1015300085BD80916E00816080936E001092810065
:101540008091810082608093810080918100816020
:1015500080938100809180008160809380008091E1
:10156000B10084608093B1008091B000816080936D
:10157000B00080917A00846080937A0080917A0034
:10158000826080937A0080917A00816080937A00F3
:1015900080917A00806880937A001092C1008EE377
:1015A000E82E81E0F82EC2E8D4E011E090E1892E27
:1015B00097E2992EA12CB12CD7010D917D0162E00B
:1015C000802F0E947D08088319831A831B821C8246
:1015D0008D829E82AF82B886198B1A8B6996B5E090
:1015E000CA34DB0749F7BBE3EB2EB1E0FB2EC9E4BD
:1015F000D4E011E000E1802E07E2902EA12CB12C66
:10160000F70101917F0162E0802F0E947D0808832D
:1016100019831A831B821C828D829E82AF82B886B8
:10162000198B1A8B6396F4E0C238DF0749F7E09113
:10163000B503F091B60382E08083E091B103F091AD
:10164000B2031082E091B303F091B40388E0808389
:101650001092BD03E091B903F091BA0386E0808354
:10166000E091B703F091B803808180618083E091BD
:10167000B703F091B803808188608083E091B7035D
:10168000F091B803808180688083E091B703F09186
:10169000B80380818F7D808380914803811145C08C
:1016A00010923A03109239038FEF80933D03809399
:1016B0003E0380933F0380934003809341038093D4
:1016C000420381E080934303109245031092440348
:1016D00010923C0310923B038091A3039091A403CA
:1016E000892B31F487E393E09093A4038093A303C1
:1016F000E0913503F0913603309721F087E393E0D2
:101700009583848387E393E0909336038093350336
:1017100010924703109246038DE291E090933803B4
:101720008093370381E080934803229A89E793E00E
:1017300090933A03809339038AE090E090934503B5
:101740008093440380914D0590914E05A0914F05E3
:10175000B0915005843C29E09207A105B10520F421
:1017600084EC99E0A0E0B0E080934D0590934E05A5
:10177000A0934F05B093500561E0809143040E940F
:101780007D0861E0809143040E941A07809146041D
:10179000882309F440C08091470490914804892B24
:1017A000F9F48AE090E00E942118FC018091450440
:1017B00090E02091440430E0318320832FEF3FEF0D
:1017C000338322839583848384E090E0A0E0B0E0BB
:1017D00086839783A087B187F0934804E0934704FA
:1017E000C0914704D0914804888199818F3F4FEF81
:1017F000940719F061E00E947D088A819B818F3FE8
:101800005FEF950719F060E00E947D0861E08C8130
:101810000E947D0833C0CFB7F894809134038111C2
:1018200027C0E0E9F0E08491E4EAF0E09491E82F49
:10183000F0E0EE0FFF1FE859FF4FA591B491EC9136
:10184000E92321F461E08AE00E941A0761E08AE05E
:101850000E947D088CB580618CBD8CB580648CBD88
:1018600061E08DE00E947D0861E08BE00E947D08D0
:10187000809134038F5F80933403CFBF67E08BE0A8
:101880000E94D80760E089E00E94D80760E08FE0FE
:101890000E94D8076FE08AE00E94D80783E393E0B4
:1018A0000E943E0861E08CE00E94D80765E08AE073
:1018B0000E94D80764E670E080E090E00E94DE08B5
:1018C000C0E041E068E38C2F0E94F507CF5FC8308D
:1018D000C1F7C7E9D3E0E9E7F3E08FEF80838183C5
:1018E00082833396CE17DF07C9F70E94240968EE7A
:1018F00073E080E090E00E94DE0888E591E00E94BD
:101900003E08E9E7F3E01082118212823396CE1787
:10191000DF07C9F70E94240980E090E00E948A173F
:101920008F3F71F56AE071E08AE090E00E94EA057D
:1019300066E071E084E190E00E94EA056EE071E00B
:101940008EE190E00E94EA0561E071E088E290E0BB
:101950000E94EA0580E090E00E948A17882329F01F
:1019600060E080E090E00E94921781E090E00E94A9
:101970008A17882329F060E081E090E00E949217A6
:101980006AE071E08AE090E00E94C40566E071E0E0
:1019900084E190E00E94C4056EE071E08EE190E089
:1019A0000E94C40561E071E088E290E00E94C405F5
:1019B0006AE0C62ED12CE12CF12C22242394312C68
:1019C00010919803123009F47EC338F4112381F08A
:1019D000113009F4ACC20C94AC16143009F420C7D1
:1019E00008F44BC5153011F40C94F3150C94AC1697
:1019F0000E94150680915003813009F4A5C038F08B
:101A0000823009F43EC1833009F4D8C159C28091B3
:101A10000001882309F450C01092000181E691E092
:101A20000E943E0860910A0170910B0180910C01A7
:101A300090910D0124E630E040E050E00E94C41790
:101A400060E3620F40E085E00E94F50760910A01C3
:101A500070910B0180910C0190910D01A7019601ED
:101A60000E94C417CA01B901A70196010E94C417B8
:101A7000605D40E086E00E94F50760910A01709188
:101A80000B0180910C0190910D01A70196010E941C
:101A9000C417605D40E087E00E94F5078CE691E0A6
:101AA0000E94E80660910A0170910B0180910C017F
:101AB00090910D010E94FD0689E494E00E944A067F
:101AC00081111FC080910A0190910B01A0910C011E
:101AD000B0910D010596A11DB11D89379105A10594
:101AE000B10520F088E790E0A0E0B0E080930A0123
:101AF00090930B01A0930C01B0930D0181E08093B2
:101B000000018FE694E00E944A068111CBC18091CA
:101B10000A0190910B01A0910C01B0910D01059764
:101B2000A109B10985309105A105B10520F485E031
:101B300090E0A0E0B0E080930A0190930B01A093A5
:101B40000C01B0930D01ABC180910001882309F411
:101B500050C01092000181E891E00E943E0860911F
:101B6000060170910701809108019091090124E616
:101B700030E040E050E00E94C41760E3620F40E0B4
:101B800085E00E94F5076091060170910701809140
:101B9000080190910901A70196010E94C417CA018A
:101BA000B901A70196010E94C417605D40E086E07C
:101BB0000E94F5076091060170910701809108016C
:101BC00090910901A70196010E94C417605D40E051
:101BD00087E00E94F5078BE891E00E94E80660919B
:101BE00006017091070180910801909109010E94FE
:101BF000FD0689E494E00E944A0681111FC080918D
:101C0000060190910701A0910801B0910901059684
:101C1000A11DB11D89379105A105B10520F088E707
:101C200090E0A0E0B0E08093060190930701A093BC
:101C30000801B093090181E0809300018FE694E0F0
:101C40000E944A0681112EC18091060190910701E0
:101C5000A0910801B09109010597A109B10985304A
:101C60009105A105B10520F485E090E0A0E0B0E089
:101C70008093060190930701A0930801B093090196
:101C80000EC180910001882309F450C01092000118
:101C900081EA91E00E943E0860910E0170910F016F
:101CA000809110019091110124E630E040E050E075
:101CB0000E94C41760E3620F40E085E00E94F507D0
:101CC00060910E0170910F018091100190911101AE
:101CD000A70196010E94C417CA01B901A701960184
:101CE0000E94C417605D40E086E00E94F5076091A5
:101CF0000E0170910F018091100190911101A701C7
:101D000096010E94C417605D40E087E00E94F507DD
:101D10008AEA91E00E94E80660910E0170910F013D
:101D200080911001909111010E94FD0689E494E0D8
:101D30000E944A0681111FC080910E0190910F01EF
:101D4000A0911001B09111010596A11DB11D893717
:101D50009105A105B10520F088E790E0A0E0B0E092
:101D600080930E0190930F01A0931001B093110185
:101D700081E0809300018FE694E00E944A06811181
:101D800091C080910E0190910F01A0911001B0912E
:101D900011010597A109B10985309105A105B1058A
:101DA00020F485E090E0A0E0B0E080930E019093F5
:101DB0000F01A0931001B093110171C08091000137
:101DC0008823D9F01092000180EC91E00E943E0837
:101DD00060910101605D40E087E00E94F50788ECBA
:101DE00091E00E94E80660910101709102018091EA
:101DF0000301909104010E94FD0689E494E00E9491
:101E00004A0681111FC08091010190910201A091A9
:101E10000301B09104010196A11DB11D8630910509
:101E2000A105B10520F085E090E0A0E0B0E080934E
:101E3000010190930201A0930301B093040181E09A
:101E4000809300018FE694E00E944A0681112AC027
:101E50008091010190910201A0910301B0910401D0
:101E60000097A105B10559F00197A109B109809327
:101E7000010190930201A0930301B093040181E05A
:101E800040910101509102016091030170910401A0
:101E9000452B462B472B09F480E08093050181E018
:101EA000809300018CE594E00E944A06811108C0ED
:101EB000809150038F5F8093500381E080930001F5
:101EC00080915003843009F047C71092500381E09D
:101ED0008093980385EE91E00E943E088BEE91E09E
:101EE0000E940C076AE071E08AE090E00E94EA0537
:101EF00066E071E084E190E00E94EA056EE071E046
:101F00008EE190E00E94EA0561E071E088E290E0F5
:101F10000E94EA0580EA96E8A1E0B0E080936104BF
:101F200090936204A0936304B093640415C70E9465
:101F300015068CE594E00E944A06882369F080919A
:101F40000501882309F408C70E94270602E814E067
:101F5000712C6624639451C082EF91E00E940C07BB
:101F600082E08093980320910A0130910B01409107
:101F70000C0150910D01A8EEB3E00E94ED174B014A
:101F80005C010E941809860E971EA81EB91E809239
:101F90005D0390925E03A0925F03B0926003209174
:101FA0000A0130910B0140910C0150910D01A8EEF6
:101FB000B3E00E94ED17A70196010E94C417209379
:101FC000650330936603409367035093680380E48E
:101FD00092E4AFE0B0E08093610490936204A09338
:101FE0006304B0936404E2E8F4E081E0808F7996C2
:101FF00095E0EA34F907D1F7A2CFD80113968C9176
:1020000013978823E9F157966C920E9418094B01A7
:102010005C01209101013091020140910301509136
:102020000401A8EEB3E00E94ED17860E971EA81ECD
:10203000B91EF801838A948AA58AB68A8CEF91E04A
:102040000E94E806872D0E94EA0685E192E00E9440
:10205000E806609101017091020180910301909165
:1020600004010E94FD0683E292E00E94E806D80186
:1020700053966D917D918D919C9156970E94FD068E
:102080007394075E1F4FB8E07B12B7CF02E814E0ED
:10209000B12CF8018789882379F00E941809D801AA
:1020A00053964D905D906D907C90569746165706CE
:1020B0006806790608F454C6B394075E1F4FB8E06B
:1020C000BB12E7CF49C60E94180900917503109111
:1020D00076032091770330917803061717072807B6
:1020E000390708F060C00E941809DC01CB01885153
:1020F0009C4FAF4FBF4F8093750390937603A0938F
:102100007703B093780380905D0390905E03A09076
:102110005F03B09060030E941809861A970AA80A04
:10212000B90AC501B40128EE33E040E050E00E9456
:10213000C41729013A01209351033093520340936D
:102140005303509354038CE292E00E943E08C50171
:10215000B40120EA36E841E050E00E94C41760E391
:10216000620F40E085E00E94F507C501B40120E15F
:1021700037E240E050E00E94C417CA01B901A7014C
:1021800096010E94C417605D40E086E00E94F5075A
:10219000C301B201A70196010E94C417605D40E02F
:1021A00087E00E94F5070E941809009169031091C9
:1021B0006A0320916B0330916C03061717072807F9
:1021C000390708F061C00E94180900916503109159
:1021D00066032091670330916803DC01CB01800F17
:1021E000911FA21FB31F8093690390936A03A0936A
:1021F0006B03B0936C0380905D0390905E03A0909E
:102200005F03B09060030E941809861A970AA80A13
:10221000B90A20910A0130910B0140910C015091B3
:102220000D01AAE0B0E00E94ED179B01AC01C501D1
:10223000B4010E94C417AAE0B0E00E94ED1724E6A2
:1022400030E040E050E00E94C4172F5FE9E7F3E080
:1022500080E09FEF821730F49083118292838F5F2A
:102260003396F8CF2A3070F4E22FF0E0CF01880FD8
:10227000991FE80FF91FE758FC4F10821182128254
:102280002F5FF0CF0E9424090E94270602E814E085
:10229000B12CF801808D882309F49EC087898111B3
:1022A0009BC08381882309F497C061E080810E94EC
:1022B0007D08D8018C91883048F098EF980F9630BF
:1022C00050F4E5E2F0E0A5E2B0E009C0EBE2F0E0B6
:1022D000ABE2B0E004C0E8E2F0E0A8E2B0E02C91AC
:1022E0008E3048F08E50A10102C0440F551F8A95D0
:1022F000E2F7CA0108C08770D10102C0AA0FBB1F54
:102300008A95E2F7CD01809582238083B3E0B09374
:1023100098032091060130910701409108015091E6
:102320000901A8EEB3E00E94ED172B013C010E94C9
:102330001809460E571E681E791E40925903509286
:102340005A0360925B0370925C03B092120184E3C3
:1023500092E00E94E8068B2D0E94EA061092750317
:10236000109276031092770310927803109269030B
:1023700010926A0310926B0310926C032091060175
:10238000309107014091080150910901A8EEB3E096
:102390000E94ED17A70196010E94C41720936503C0
:1023A00030936603409367035093680340905D0346
:1023B00050905E0360905F03709060030E94180964
:1023C000461A570A680A790A4092610350926203DA
:1023D0006092630370926403B394075E1F4FE8E05A
:1023E000BE1257CF0E9415068CE594E00E944A0663
:1023F00081110AC085E08093980381E08093970360
:1024000086E492E00E940C070E94180900915D0387
:1024100010915E0320915F03309160030617170748
:102420002807390748F485E08093980310929703B2
:102430008EE492E00E940C0780910501882309F444
:102440008BC402E814E0B12CD80157968C918823F4
:1024500069F00E941809F8014388548865887688D5
:10246000461657066806790608F484C4B394075ED6
:102470001F4FF8E0BF12E8CF6FC40E941809009107
:102480007503109176032091770330917803061736
:1024900017072807390708F067C00E941809DC01F0
:1024A000CB0188519C4FAF4FBF4F809375039093E2
:1024B0007603A0937703B0937803809059039090AC
:1024C0005A03A0905B03B0905C030E941809861A1F
:1024D000970AA80AB90AC501B40128EE33E040E022
:1024E00050E00E94C41729013A012093550330930C
:1024F0005603409357035093580389E592E00E9496
:102500003E08609112016F5C41E083E00E94F50794
:10251000C501B40120EA36E841E050E00E94C4174A
:1025200060E3620F40E085E00E94F507C501B40159
:1025300020E137E240E050E00E94C417CA01B9012F
:10254000A70196010E94C417605D40E086E00E94EA
:10255000F507C301B201A70196010E94C417605D8F
:1025600040E087E00E94F5070E9418090091690386
:1025700010916A0320916B0330916C0306171707C3
:102580002807390708F061C00E9418090091650307
:10259000109166032091670330916803DC01CB0141
:1025A000800F911FA21FB31F8093690390936A034A
:1025B000A0936B03B0936C038090590390905A03DF
:1025C000A0905B03B0905C030E941809861A970ADA
:1025D000A80AB90A2091060130910701409108012B
:1025E00050910901AAE0B0E00E94ED179B01AC01F7
:1025F000C501B4010E94C417AAE0B0E00E94ED1723
:1026000024E630E040E050E00E94C4172F5FE9E785
:10261000F3E080E09FEF821730F410821182928302
:102620008F5F3396F8CF2A3070F4E22FF0E0CF01BD
:10263000880F991FE80FF91FE758FC4F108211828D
:1026400012822F5FF0CF0E9424090E94150689E4B0
:1026500094E00E944A0681110AC085E080939803A5
:1026600082E0809397038EE592E00E940C078FE64C
:1026700094E00E944A0681117DC082E08093980315
:1026800082E792E00E940C0715E00FEFE9E7F3E024
:102690000083118212823396CE17DF07C9F70E949A
:1026A000240964E670E080E090E00E94DE08E9E73B
:1026B000F3E01082118212823396CE17DF07C9F73A
:1026C0000E94240964E670E080E090E00E94DE0849
:1026D0001150E1F6E091120129E1E29FF00111248D
:1026E000EE57FB4F108E80819281911112E0612F85
:1026F0000E947D080E9418090091610310916203F5
:102700002091630330916403DC01CB01800F911FA2
:10271000A21FB31F80935D0390935E03A0935F039A
:10272000B0936003109275031092760310927703B2
:10273000109278031092690310926A0310926B034F
:1027400010926C0320910A0130910B0140910C0111
:1027500050910D01A8EEB3E00E94ED17A70196017C
:102760000E94C41720936503309366034093670368
:10277000509368030E9418090091590310915A035D
:1027800020915B0330915C03061717072807390770
:1027900008F0E2C284E0809398030E9418094B017C
:1027A0005C0120910E0130910F0140911001509178
:1027B0001101A8EEB3E00E94ED178B019C010150BE
:1027C000110921093109800E911EA21EB31E8092AB
:1027D000710390927203A0927303B09274031092EB
:1027E000750310927603109277031092780310927B
:1027F000690310926A0310926B0310926C03A70195
:1028000096010E94C417209365033093660340939A
:1028100067035093680387E892E00E940C079CC20C
:102820000E94180900917503109176032091770397
:1028300030917803061717072807390708F067C093
:102840000E941809DC01CB0188519C4FAF4FBF4F4C
:102850008093750390937603A0937703B0937803E6
:102860008090710390907203A0907303B0907403F2
:102870000E941809861A970AA80AB90AC501B40164
:1028800028EE33E040E050E00E94C41729013A01ED
:1028900020936D0330936E0340936F035093700346
:1028A00081E992E00E943E08609112016F5C41E074
:1028B00083E00E94F507C501B40120EA36E841E053
:1028C00050E00E94C41760E3620F40E085E00E9480
:1028D000F507C501B40120E137E240E050E00E9475
:1028E000C417CA01B901A70196010E94C417605D0F
:1028F00040E086E00E94F507C301B201A7019601FE
:102900000E94C417605D40E087E00E94F5070E94C6
:1029100018090091690310916A0320916B033091AB
:102920006C03061717072807390708F061C00E94D3
:102930001809009165031091660320916703309197
:102940006803DC01CB01800F911FA21FB31F80938E
:10295000690390936A03A0936B03B0936C03809018
:10296000710390907203A0907303B09074030E945F
:102970001809861A970AA80AB90A20910E013091FF
:102980000F014091100150911101AAE0B0E00E94A6
:10299000ED179B01AC01C501B4010E94C417AAE068
:1029A000B0E00E94ED1724E630E040E050E00E94E5
:1029B000C4172F5FE9E7F3E080E09FEF821730F460
:1029C0009083918312828F5F3396F8CF2A3070F410
:1029D000E22FF0E0CF01880F991FE80FF91FE758A9
:1029E000FC4F1082118212822F5FF0CF0E942409C7
:1029F0000E94150689E494E00E944A0681110AC0EB
:102A000085E08093980382E08093970386E992E0C3
:102A10000E940C078FE694E00E944A0681117DC057
:102A200082E0809398038AEA92E00E940C0715E006
:102A30000FEFE9E7F3E00083118212823396CE179D
:102A4000DF07C9F70E94240964E670E080E090E0A7
:102A50000E94DE08E9E7F3E01082118212823396C9
:102A6000CE17DF07C9F70E94240964E670E080E012
:102A700090E00E94DE081150E1F6E091120149E178
:102A8000E49FF0011124EE57FB4F108E808192815C
:102A9000911112E0612F0E947D080E941809009197
:102AA0006103109162032091630330916403DC01A0
:102AB000CB01800F911FA21FB31F80935D039093E2
:102AC0005E03A0935F03B0936003109275031092AE
:102AD0007603109277031092780310926903109294
:102AE0006A0310926B0310926C0320910A013091DB
:102AF0000B0140910C0150910D01A8EEB3E00E9432
:102B0000ED17A70196010E94C41720936503309327
:102B1000660340936703509368030E94180900916D
:102B2000710310917203209173033091740306179F
:102B300017072807390708F00FC18FEB92E00E94B2
:102B40000C0782E08093980315E00FEFE9E7F3E0CC
:102B50000083118212823396CE17DF07C9F70E94D5
:102B6000240964E670E080E090E00E94DE08E9E776
:102B7000F3E01082118212823396CE17DF07C9F775
:102B80000E94240964E670E080E090E00E94DE0884
:102B90001150E1F6E091120159E1E59FF001112495
:102BA000EE57FB4F108E80819281911112E0612FC0
:102BB0000E947D080E941809009161031091620330
:102BC0002091630330916403DC01CB01800F911FDE
:102BD000A21FB31F80935D0390935E03A0935F03D6
:102BE000B0936003B9C0809197038130A1F148F0A0
:102BF000823009F07FC080E093E00E940C070FEF65
:102C000076C087ED92E00E940C070FEFE9E7F3E052
:102C10000083118212823396CE17DF07C9F70E9414
:102C2000240964E670E080E090E00E94DE08E9E7B5
:102C3000F3E01082118212823396CE17DF07C9F7B4
:102C40000E94240964E670E080E090E00E94DE08C3
:102C50001150E1F64FC08DEE92E00E940C070FEF8D
:102C6000E9E7F3E00083018312823396CE17DF0792
:102C7000C9F70E94240964E670E080E090E00E94B9
:102C8000DE08E9E7F3E01082118212823396CE1754
:102C9000DF07C9F70E94240964E670E080E090E055
:102CA0000E94DE081150E1F625C0108201831282D5
:102CB0003396CE17DF07C9F70E94240964E670E057
:102CC00080E090E00E94DE08E9E7F3E010821182E4
:102CD00012823396CE17DF07C9F70E94240964E6F3
:102CE00070E080E090E00E94DE08115019F0E9E702
:102CF000F3E0DBCF81E08093980380EA96E8A1E0DF
:102D0000B0E08093610490936204A0936304B09355
:102D1000640485EE91E00E943E088BEE91E00E94F3
:102D20000C0702E814E0BB24B394D8015896BC9277
:102D3000589757961C9257978C9112969C91911187
:102D400002C060E001C062E00E947D08075E1F4F84
:102D5000B5E00A341B0749F70E94C1010C94E00C4E
:102D6000F801178A84E193E00E94E8068B2D0E9407
:102D7000EA06A2C9178A84E193E00E94E8068B2D37
:102D80000E94EA0673CB60E08CE00E94D807809135
:102D9000470490914804009731F00E94B9181092AE
:102DA00048041092470480914604811111C09FB7D6
:102DB000F89480913403882319F081508093340370
:102DC00080913403811103C08CB58F7B8CBD9FBF74
:102DD00008951092A8031092A70388EE93E0A0E054
:102DE000B0E08093A9039093AA03A093AB03B093A0
:102DF000AC038AE491E09093A6038093A50385EC4D
:102E000090E09093B2038093B10384EC90E09093B0
:102E1000B4038093B30380EC90E09093B603809367
:102E2000B50381EC90E09093B8038093B70382ECF4
:102E300090E09093BA038093B90386EC90E090936E
:102E4000BC038093BB031092BE031092BF03109289
:102E5000C0031092C103E2E8F4E092E040E157E2DF
:102E600060E070E081E0908311821282138214820C
:102E70004583568367837087818B828B138A148A7C
:102E8000158A168A178A108E799625E0EA34F20799
:102E900051F7E9E4F4E022E040E157E260E070E05D
:102EA00091E020831182128213821482458356831B
:102EB0006783708781E0918B928B739634E0E23860
:102EC000F30779F7809342049CE0909343049BE0DE
:102ED000909344049DE0909345048093460410929F
:102EE0004804109247048FEF80934A0510924C05D6
:102EF00010924B0510925605109255058FEF9FEFDB
:102F0000DC018093510590935205A0935305B09333
:102F100054050895F999FECF92BD81BDF89A99277D
:102F200080B50895262FF999FECF1FBA92BD81BDB5
:102F300020BD0FB6F894FA9AF99A0FBE019608953B
:102F4000DB018F939F930E94ED17BF91AF91A29FDA
:102F5000800D911DA39F900DB29F900D1124089597
:102F600097FB072E16F4009407D077FD09D00E9436
:102F7000F81707FC05D03EF4909581959F4F089572
:102F8000709561957F4F0895A1E21A2EAA1BBB1B75
:102F9000FD010DC0AA1FBB1FEE1FFF1FA217B30725
:102FA000E407F50720F0A21BB30BE40BF50B661F3B
:102FB000771F881F991F1A9469F7609570958095FF
:102FC00090959B01AC01BD01CF0108950E9412189C
:102FD000B7FF0895821B930B08950E941218A59FB6
:102FE000900DB49F900DA49F800D911D1124089504
:102FF000AA1BBB1B51E107C0AA1FBB1FA617B7071F
:1030000010F0A61BB70B881F991F5A95A9F780953A
:103010009095BC01CD010895EE0FFF1F0590F4912E
:10302000E02D0994A29FB001B39FC001A39F700D32
:10303000811D1124911DB29F700D811D1124911DC0
:1030400008950F931F93CF93DF938230910510F46F
:1030500082E090E0E0916405F091650520E030E0C9
:10306000A0E0B0E0309719F14081518102811381D5
:1030700048175907C8F08417950769F4109731F07D
:1030800012960C93129713961C9327C00093640515
:103090001093650522C02115310519F04217530719
:1030A00018F49A01BD01EF01DF01F801DBCF211512
:1030B0003105F9F0281B390B2430310580F48A8161
:1030C0009B816115710521F0FB019383828304C00C
:1030D0009093650580936405FE01329644C0FE011D
:1030E000E20FF31F81939193225031093983288392
:1030F0003AC02091620530916305232B41F4209161
:1031000015013091160130936305209362052091DB
:103110001301309114012115310541F42DB73EB74B
:103120004091170150911801241B350BE091620565
:10313000F0916305E217F307A0F42E1B3F0B28174D
:10314000390778F0AC014E5F5F4F2417350748F020
:103150004E0F5F1F509363054093620581939193D7
:1031600002C0E0E0F0E0CF01DF91CF911F910F911D
:103170000895CF93DF93009709F481C0FC01329743
:1031800013821282A0916405B0916505109781F4B5
:1031900020813181820F931F209162053091630558
:1031A0002817390751F5F0936305E093620567C06E
:1031B000ED0120E030E0CE17DF0740F44A815B816B
:1031C0009E0141155105F1F0EA01F5CFD383C28389
:1031D00040815181840F951FC817D90759F4888100
:1031E0009981840F951F0296918380838A819B81A8
:1031F000938382832115310529F4F0936505E093CB
:1032000064053DC0E901FB83EA8349915991C40FEC
:10321000D51FEC17FD0761F480819181840F951F04
:103220000296E90199838883828193819B838A83B3
:10323000E0E0F0E012968D919C911397009719F0C1
:10324000FD01DC01F7CF8D919C9111979D012E5FBF
:103250003F4F820F931F209162053091630528171D
:10326000390769F4309729F41092650510926405C6
:1032700002C013821282B0936305A0936205DF91AE
:10328000CF91089581E090E0F8940C94471910E0F4
:10329000C0E9D0E004C0FE010E940C182196C1399B
:0832A000D107C9F7F894FFCF34
:1032A8000102000000011E00000005000000780077
:1032B80000000800006605200000000000F102F18F
:1032C80002F102C602EA02EE020000000053020FF9
:1032D800020D02C602EA020A02F3020E0F100203EE
:1032E800040506070809000000005201BB00E900B8
:1032F8009F011A01F8000C01202020202020202006
:1033080000436E742E646E2E202020005175657364
:1033180074696F6E20636F756E74646F776E3A2090
:1033280000416E532E202020202000416E737765C7
:1033380072696E6720636F756E74646F776E3A207A
:10334800004A75646745202020004A756467656DEA
:10335800656E7420636F756E74646F776E3A2000C3
:1033680050456E2E2020200046616C7365537461B1
:1033780072742050656E616C7479207365636F6E2A
:1033880064733A20007245416459005245414459DA
:1033980021005175657374696F6E210046414C5365
:1033A8004520535441525420666F7220706C6179E5
:1033B80065723A2000666F72207365636F6E64737E
:1033C8003A20006265666F72653A2000436E742E7B
:1033D800646E2E00416E73776572696E6720706C3B
:1033E800617965722000534B495050454400544957
:1033F8004D4520495320555000416E2E5000414EF6
:1034080053574552494E47205452554521202B2B9E
:103418002B00414E53574552494E472046414C5385
:103428004521202D2D2D004A554447454D454E54E4
:10343800004A642E50004A554447454D454E542095
:103448005452554521202B2B2B004A554447454DB6
:10345800454E542046414C534521202D2D2D004AE0
:10346800554447454D454E5420454E442054494DFA
:103478004521202D2D2D00524F554E4420454E44B8
:103488002054494D452049532055502100524F554D
:103498004E4420454E4420534B495050454421004A
:1034A800524F554E4420454E4420414E53574552A5
:1034B8004544210046414C53452053544152542021
:1034C800454E4420666F7220706C617965723A20AF
:0434D800000D0A00D9
:00000001FF
