:100000000C9491000C94B9000C94B9000C94B900B4
:100010000C94B9000C94B9000C94B9000C94B9007C
:100020000C94B9000C94B9000C94B9000C94B9006C
:100030000C94B9000C94B9000C94B9000C94B9005C
:100040000C94420A0C94B9000C9492050C946C0523
:100050000C94B9000C94B9000C94B9000C94B9003C
:100060000C94B9000C94B900000000002400270093
:100070002A0000000000250028002B0000000000DE
:1000800023002600290004040404040404040202DA
:100090000202020203030303030301020408102007
:1000A0004080010204081020010204081020000012
:1000B0000008000201000003040700000000000027
:1000C000000000010101010101014E78010101015F
:1000D00000017E306D79335B5F707F7B0101010130
:1000E000010101771F4E3D4F475E37303C010E0145
:1000F000157E6701055B073E01010127014E01786E
:10010000010801771F0D3D4F475E17103C010E019E
:10011000157E6701055B071C0101012701009C1981
:10012000761911241FBECFEFD8E0DEBFCDBF13E09C
:10013000A0E0B1E0EEE0F8E302C005900D92A43635
:10014000B107D9F725E0A4E6B3E001C01D92A839B4
:10015000B207E1F710E0C0E9D0E004C02197FE014A
:100160000E94BF1ACF38D107C9F70E948C0A0C949D
:10017000FA1B0C940000CF92DF92EF92FF920F9344
:100180001F93CF93DF936C017A018B01C0E0D0E025
:10019000CE15DF0581F0D8016D918D01D601ED916D
:1001A000FC910190F081E02DC6010995892B11F099
:1001B0002196EECF7E01C701DF91CF911F910F9164
:1001C000FF90EF90DF90CF900895089580E090E049
:1001D0000895FC01538D448D252F30E0842F90E04D
:1001E000821B930B541710F0CF9608950197089532
:1001F000FC01918D828D981761F0828DDF01A80F2F
:10020000B11D5D968C91928D9F5F9F73928F90E050
:1002100008958FEF9FEF0895FC01918D828D9817BF
:1002200031F0828DE80FF11D858D90E008958FEFFC
:100230009FEF0895FC01918D228D892F90E0805CC5
:100240009F4F821B91098F739927089587ED93E043
:100250000E941A0121E0892B09F420E0822F0895E1
:10026000FC01848DDF01A80FB11DA35ABF4F2C9153
:10027000848D90E001968F739927848FA689B78922
:100280002C93A089B1898C91837080648C93938D19
:10029000848D981306C00288F389E02D80818F7DBC
:1002A00080830895EF92FF920F931F93CF93DF9374
:1002B000EC0181E0888F9B8D8C8D981305C0E889B7
:1002C000F989808185FD26C0F62E0B8D10E00F5F29
:1002D0001F4F0F731127E02E8C8DE8120CC00FB644
:1002E00007FCFACFE889F989808185FFF5CFCE0137
:1002F0000E943001F1CF8B8DFE01E80FF11DE35A12
:10030000FF4FF0829FB7F8940B8FEA89FB898081B9
:1003100080620AC09FB7F894EE89FF896083E889FC
:10032000F98980818370806480839FBF81E090E041
:10033000DF91CF911F910F91FF90EF900895CF9390
:10034000DF93EC01888D8823C9F0EA89FB898081DD
:1003500085FD05C0A889B9898C9186FD0FC00FB6AF
:1003600007FCF5CF808185FFF2CFA889B9898C91F0
:1003700085FFEDCFCE010E943001E7CFDF91CF9115
:10038000089580E090E0892B29F00E9426018111D8
:100390000C94000008950F931F93CF93DF93209147
:1003A000CC032F5F322F37703093CC0320FF02C075
:1003B00020E801C020E031FD2064347009F02062A3
:1003C000205FFC01EC01239600E011E064856623C8
:1003D00031F070E0C8010E94631A6F5F01C060E0F5
:1003E0006187322F369F030E30E0311D1124311109
:1003F00002C0168202C031503683662311F061506C
:1004000061873196CE17DF0709F7DF91CF911F91F2
:100410000F91089580E991E00895229A08950F932D
:100420001F93CF93DF93CDB7DEB762970FB6F894E3
:10043000DEBF0FBECDBF8C01F901DC011C968C9193
:100440007A8369835C834B835E834D8390819D8730
:1004500091819E8792819F87813029F4CE010196F8
:100460000E94CB0106C01C861B861A861986188638
:100470001F8283E0888B1A8A198AD801ED91FC913A
:100480000484F585E02DBE016F5F7F4FC80109959B
:1004900062960FB6F894DEBF0FBECDBFDF91CF914D
:1004A0001F910F9108950F931F93CF93DF93CDB7B3
:1004B000DEB762970FB6F894DEBF0FBECDBF8C01DA
:1004C000F901DC011C968C917A8369835C834B83F0
:1004D0005E834D8390819D8791819E8792819F87C6
:1004E000813029F4CE0101960E94CB0106C01C8602
:1004F0001B861A86198618861F82188A1A8A198AF4
:10050000D801ED91FC910484F585E02DBE016F5F6B
:100510007F4FC801099562960FB6F894DEBF0FBEF3
:10052000CDBFDF91CF911F910F910895FC01908174
:10053000983038F088EF890F863030F0A6E2B0E0CE
:1005400005C0A9E2B0E002C0A3E2B0E02C91422FC6
:1005500050E09E3050F09E5021E030E002C0220F6B
:10056000331F9A95E2F7332708C0977021E030E0F7
:1005700002C0220F331F9A95E2F72423352381E02E
:10058000121613060CF080E083830895CF93DF9357
:1005900000D000D000D0CDB7DEB7AB011C821D82E9
:1005A0001E82DC01ED91FC910190F081E02D198219
:1005B0001A821B829E012F5F3F4FBE016C5F7F4FEF
:1005C000099526960FB6F894DEBF0FBECDBFDF911A
:1005D000CF910895FC0185859685089580E090E08F
:1005E00008950E94F51B4F925F926F927F928F92B7
:1005F000AF92BF92CF92DF92EF920F931F93CF9360
:10060000DF933C01EB010E94B908F3012785308993
:10061000621B730B6A307105B0F3F894E881F981BD
:1006200075B1746065B16B7F65B9CA848F812C2DFB
:10063000281B822F2F83BF844A805B801D850C85F9
:10064000DE841F5F0F5FD3949E813885A984EB847D
:100650004181D20120E0C32F522F322F3181442714
:1006600088943111380F08F43FEF8195889410FD7C
:10067000430F4795889411FD430F4795889412FDC9
:10068000430F4795889413FD430F4795889414FDB5
:10069000430F4795889415FD430F4795889416FDA1
:1006A000430F4795889417FD430F47958894232F50
:1006B0001111242F8C0D422F002C75B900C047FF5B
:1006C00065B930812227889400C000C0002C65B92C
:1006D0003111390F00C0002C75B900C046FF65B953
:1006E00008F43FEF9195889400C000C0002C65B9D4
:1006F00000FD230F00C0002C75B900C045FF65B98F
:100700002795889401FD230F00C000C0002C65B917
:100710002795889400C0002C75B900C044FF65B9C6
:1007200002FD230F2795889400C000C0002C65B9F6
:1007300003FD230F00C0002C75B900C043FF65B94D
:100740002795889404FD230F00C000C0002C65B9D4
:100750002795889400C0002C75B900C042FF65B988
:1007600005FD230F2795889400C000C0002C65B9B3
:1007700006FD230F00C0002C75B900C041FF65B90C
:100780002795889407FD230F00C000C0002C65B991
:100790002795889400C0002C75B900C040FF65B94A
:1007A000432F0111422F9A0D00C000C0002C65B9E3
:1007B00000C000C0002C75B900C047FF65B9328188
:1007C0002227889400C000C0002C65B931113C0F6D
:1007D00000C0002C75B900C046FF65B908F43FEFB2
:1007E000EB0DF11D00C000C0002C65B9D0FC230F3B
:1007F00000C0002C75B900C045FF65B927958894E5
:10080000D1FC230F00C000C0002C65B92795889447
:1008100000C0002C75B900C044FF65B9D2FC230F9D
:100820002795889400C000C0002C65B9D3FC230F25
:1008300000C0002C75B900C043FF65B927958894A6
:10084000D4FC230F00C000C0002C65B92795889404
:1008500000C0002C75B900C042FF65B9D5FC230F5C
:100860002795889400C000C0002C65B9D6FC230FE2
:1008700000C0002C75B900C041FF65B92795889468
:10088000D7FC230F00C000C0002C65B927958894C1
:1008900000C0002C75B900C040FF65B9432FD110CE
:1008A000422FC19500C000C0002C65B9CE0D00C01C
:1008B00000C075B900C047FF65B93181222788940F
:1008C00000C000C0002C65B93111380F00C0002CE9
:1008D00075B900C046FF65B908F43FEF819588946B
:1008E00000C000C0002C65B910FD230F00C0002C13
:1008F00075B900C045FF65B92795889411FD230F90
:1009000000C000C0002C65B92795889400C0002C59
:1009100075B900C044FF65B912FD230F279588946F
:1009200000C000C0002C65B913FD230F00C0002CCF
:1009300075B900C043FF65B92795889414FD230F4E
:1009400000C000C0002C65B92795889400C0002C19
:1009500075B900C042FF65B915FD230F279588942E
:1009600000C000C0002C65B916FD230F00C0002C8C
:1009700075B900C041FF65B92795889417FD230F0D
:1009800000C000C0002C65B92795889400C0002CD9
:1009900075B900C040FF65B9432F1111422F8C0D6E
:1009A00000C000C0002C65B9119709F086CE20EE7A
:1009B00031E0D2010E94991ADC01CB01F4E0B69536
:1009C000A79597958795FA95D1F720E030E0B90182
:1009D000EAE94E9E040C611D5E9E600D711D11249E
:1009E000650D711D860F971FA11DB11D893E43E046
:1009F0009407A105B10508F434C0885E9340A109AD
:100A0000B10942E0B695A795979587954A95D1F794
:100A100047E0849F080E211D949F200D311D112455
:100A2000290F311D6091CB0370E0860F971F820F55
:100A3000931F4091CD035091CE036091CF037091ED
:100A4000D003292F3327420F531F611D711D40937F
:100A5000CD035093CE036093CF037093D003809364
:100A6000CB0378940E94B908F301708B6787DF91FC
:100A7000CF911F910F91EF90DF90CF90BF90AF90EB
:100A80008F907F906F905F904F900895CF93DF93FA
:100A9000EC018981882321F09B8181E089278B8368
:100AA0009B818C81992351F0811111C00E94B9085A
:100AB00069877A878B879C871A8A09C0882339F0CF
:100AC0000E94B9086D877E878F87988B198A8B81E2
:100AD0008C83DF91CF9108951F920F920FB60F92E2
:100AE00011242F933F934F935F936F937F938F9333
:100AF0009F93AF93BF93EF93FF9387ED93E00E9493
:100B00003001FF91EF91BF91AF919F918F917F91B4
:100B10006F915F914F913F912F910F900FBE0F906A
:100B20001F9018951F920F920FB60F9211242F93BA
:100B30008F939F93EF93FF93E091E703F091E80386
:100B40008081E091ED03F091EE0382FD12C090816F
:100B50008091F0038F5F8F732091F103821751F022
:100B6000E091F003F0E0E952FC4F958F8093F003A1
:100B700001C08081FF91EF919F918F912F910F90F4
:100B80000FBE0F901F901895CF92DF92EF92FF92B9
:100B90000F931F93CF93DF93EB017B0124E0E20ED1
:100BA000F11C8B016C01C61AD70AC601800F911F78
:100BB0000E943D1AF80181938F01EE15FF05A9F7F8
:100BC000CE01DF91CF911F910F91FF90EF90DF90B9
:100BD000CF900895AF92BF92DF92EF92FF920F9362
:100BE0001F93CF93DF93EC017B018B015C0184E0C9
:100BF000A80EB11CF801D1908F01CE010E943D1AC0
:100C0000D81621F06D2DCE010E94451A2196CA15E5
:100C1000DB0581F7C701DF91CF911F910F91FF9005
:100C2000EF90DF90BF90AF900895CF93DF93CBE725
:100C3000D4E0CE010E949602CE010E944605639642
:100C400084E0C43BD807A9F7DF91CF910895EF92D4
:100C5000FF920F931F93CF93DF93C4EBD4E08CE705
:100C6000E82E85E0F82E8E01C8010E949602075EEC
:100C70001F4FE016F106C1F7CE010E9446056996A6
:100C8000EC16FD06C9F7DF91CF911F910F91FF90F0
:100C9000EF9008950F931F93FC018189811119C072
:100CA00081E0818B45855685678570898185928530
:100CB000A385B485481B590B6A0B7B0B81E005812A
:100CC000168127813085041715072607370708F492
:100CD00080E01F910F910895833081F028F48130D6
:100CE00099F08230A1F008958730A9F08830B9F0EA
:100CF0008430D1F4809180008F7D03C0809180008A
:100D00008F7780938000089584B58F7702C084B573
:100D10008F7D84BD08958091B0008F7703C080914E
:100D2000B0008F7D8093B0000895009769F0FC01BA
:100D300001900020E9F73197AF01481B590BBC0126
:100D400087ED93E00C94BB0080E090E008958F92D3
:100D50009F92AF92BF920F931F93CF93DF93CDB724
:100D6000DEB7A1970FB6F894DEBF0FBECDBF19A2B4
:100D7000423008F44AE08E010F5D1F4F842E912C03
:100D8000A12CB12CA50194010E94771AE62FB9017C
:100D9000CA0101501109EA3014F4E05D01C0E95CB8
:100DA000D801EC93232B242B252B61F7C8010E943B
:100DB0009506A1960FB6F894DEBF0FBECDBFDF91AA
:100DC000CF911F910F91BF90AF909F908F900895FA
:100DD000CF93DF930E949506EC0180E693E00E949A
:100DE00095068C0F9D1FDF91CF910895CF93DF93D0
:100DF0004AE00E94A706EC0180E693E00E94950677
:100E00008C0F9D1FDF91CF9108950C949506CF9381
:100E1000DF93682F70E080E090E04AE00E94A70630
:100E2000EC0180E693E00E9495068C0F9D1FDF91F8
:100E3000CF9108951F93CF93DF93282F30E0F901CE
:100E4000E255FF4F8491F901E656FF4FD491F90125
:100E5000EA57FF4FC491CC23C1F0162F81110E9495
:100E60006C06EC2FF0E0EE0FFF1FEE58FF4FA59140
:100E7000B4919FB7F894111104C08C91D095D823E8
:100E800002C0EC91DE2BDC939FBFDF91CF911F91CD
:100E90000895EF92FF920F931F93CF93DF93EC018E
:100EA000162F08E0888199818F3F2FEF920739F044
:100EB00017FF02C061E001C060E00E941A07110F35
:100EC0002A813B812F3F8FEF380701F13327F9014A
:100ED000E255FF4F8491F901E656FF4FE490F90186
:100EE000EA57FF4FF490FF2079F081110E946C06C1
:100EF000EF2DF0E0EE0FFF1FE458FF4FA591B491E6
:100F0000EC91EE2281E009F480E0182B61E08C8105
:100F10000E941A078E819F818230910538F0880FD8
:100F2000991F880F991F05970197F1F760E08C8151
:100F30000E941A078E819F818230910538F0880FB8
:100F4000991F880F991F05970197F1F7015009F034
:100F5000A9CF812FDF91CF911F910F91FF90EF903B
:100F60000895CF93909178049923A1F0209179046A
:100F700030917A0421153105C9F0C62F682FC901B7
:100F80000E9449076C2F8091790490917A04CF9147
:100F90000C9449078EBD00000DB407FEFDCF8EB541
:100FA0006EBD00000DB407FEFDCF8EB5CF91089544
:100FB0001F93CF93DF93D82F162F60E08091750495
:100FC0000E941A07C0E080917404C81730F4612FA2
:100FD0008D2F0E94B107CF5FF6CF61E0809175043D
:100FE000DF91CF911F910C941A070F931F93CF930A
:100FF000DF93D82F80EE860F8B3538F4E62F660FFF
:10100000FF0BEE55FF4FC49101C0C1E04111C06814
:1010100060E0809175040E941A078D2F877018E098
:10102000181BD695D695D69500E0D01731F060E024
:1010300080E00E94B1070F5FF8CF6C2F812F0E94D4
:10104000B10700E010E0CD2FD0E08091740490E073
:101050008C1B9D0B0197081719073CF460E080E09A
:101060000E94B1070F5F1F4FF0CF61E080917504C0
:10107000DF91CF911F910F910C941A070F931F933B
:10108000CF93DF938C01C0E0809174042C2F30E06B
:1010900048E0849FC0011124281739074CF5F80156
:1010A0006081662389F0D18141E0DE3209F040E0C1
:1010B0008C2F0E94F507DE3219F00F5F1F4F02C020
:1010C0000E5F1F4FCF5FE0CF809174042C2F30E074
:1010D000F8E08F9FC0011124281739074CF4D1E0A4
:1010E000DC0F40E060E28C2F0E94F507CD2FECCFA3
:1010F000DF91CF911F910F910895CF93DF9390E0EF
:10110000FC01E656FF4F2491FC01EA57FF4F849102
:10111000882361F190E0880F991FFC01E859FF4F87
:10112000C591D491FC01EE58FF4FA591B491611186
:1011300009C09FB7F8948881209582238883EC9119
:101140002E230BC0623061F49FB7F8948881322F50
:10115000309583238883EC912E2B2C939FBF06C060
:101160008FB7F894E8812E2B28838FBFDF91CF9122
:1011700008953FB7F8948091D1039091D203A09144
:10118000D303B091D40326B5A89B05C02F3F19F017
:101190000196A11DB11D3FBFBA2FA92F982F8827F7
:1011A000820F911DA11DB11DBC01CD0142E0660F52
:1011B000771F881F991F4A95D1F708958F929F92A4
:1011C000AF92BF92CF92DF92EF92FF926B017C01C0
:1011D0000E94B9084B015C01C114D104E104F1047F
:1011E000F1F00E94B908DC01CB0188199909AA091C
:1011F000BB09883E9340A105B10570F321E0C21AF6
:10120000D108E108F10888EE880E83E0981EA11C41
:10121000B11CC114D104E104F10419F7DDCFFF9032
:10122000EF90DF90CF90BF90AF909F908F900895F8
:101230002FB7F8946091CD037091CE038091CF03C6
:101240009091D0032FBF08953F924F925F926F927B
:101250007F928F929F92AF92BF92CF92DF92EF9246
:10126000FF920F931F93CF93DF9300D01F92CDB7C0
:10127000DEB7F0907C0580917F0590918005A0916C
:101280008105B0918205892B8A2B8B2BE9F00E9476
:10129000B90800918F05109190052091910530912A
:1012A0009205DC01CB01801B910BA20BB30B0091CB
:1012B0007F0510918005209181053091820580176E
:1012C0009107A207B307B8F20E94B90860938F058F
:1012D000709390058093910590939205E091870516
:1012E000F0918805309759F040918305509184051D
:1012F00060918505709186058F2D0995F82E0091D6
:10130000D5031091D6034F2C512C612C712C011553
:10131000110509F45FC0D8011C96EC901C978091D0
:101320007D0590917E058436910510F41C961C92E3
:10133000D801ED91FC91A280B38019821A821B82A0
:10134000F11014C0F80145855685628173819E01B4
:101350002F5F3F4FC801F5010995D8011C96EC920B
:101360001C9714960D911C911597D1CFF8013696C4
:10137000CE0101966C01480199E0890E911C2191E2
:10138000222309F132803320F1F0822F90E0A0E097
:10139000B0E09C01AD012F5F3F4F4F4F5F4FC30146
:1013A000B2010E94531A9B01AC01832D90E0A0E092
:1013B000B0E0BC01CD016F5F7F4F8F4F9F4F0E9408
:1013C000531AD6018C93BFEFCB1ADB0AE815F90547
:1013D000B1F6B8CF80918D0590918E058C010F5F8D
:1013E0001F4F10938E0500938D054997B4F10E940D
:1013F0001809C0908905D0908A05E0908B05F0907F
:101400008C059B01AC012C193D094E095F0921F4A3
:1014100021E030E040E050E088EE93E0089FB0012A
:10142000099F700D189F700D1124072E000C880B5A
:10143000990B0E94771A30937E0520937D051092B8
:101440008E0510928D050E9418096093890570938E
:101450008A0580938B0590938C050F900F900F90C9
:10146000DF91CF911F910F91FF90EF90DF90CF9080
:10147000BF90AF909F908F907F906F905F904F90B4
:101480003F9008951F920F920FB60F9211242F9341
:101490003F938F939F93AF93BF938091CD03909190
:1014A000CE03A091CF03B091D0033091930523E0F8
:1014B000230F2D3720F40196A11DB11D05C026E88C
:1014C000230F0296A11DB11D209393058093CD0398
:1014D0009093CE03A093CF03B093D0038091D10318
:1014E0009091D203A091D303B091D4030196A11D92
:1014F000B11D8093D1039093D203A093D303B093F3
:10150000D403BF91AF919F918F913F912F910F90F5
:101510000FBE0F901F901895CF93DF9300D000D08F
:10152000CDB7DEB7789484B5826084BD84B5816020
:1015300084BD85B5826085BD85B5816085BD80919E
:101540006E00816080936E00109281008091810016
:10155000826080938100809181008160809381000E
:10156000809180008160809380008091B1008460D0
:101570008093B1008091B00081608093B000809131
:101580007A00846080937A0080917A0082608093F0
:101590007A0080917A00816080937A0080917A004D
:1015A000806880937A001092C1009DE3E92E91E05B
:1015B000F92E24EB34E03A83298311E020E1822ED6
:1015C00027E2922EA12CB12CD7010D917D0162E072
:1015D000802F0E947D08E981FA81008311831283A4
:1015E00013821482DF0185829682A782B086118BD6
:1015F000128B5996BA83A983ECE7F5E0EA17FB074B
:1016000019F71AE3E12E11E0F12E2BE734E03A83CB
:10161000298304EBC02E04E0D02E11E080E1882E57
:1016200087E2982EA12CB12CD7010D917D0162E0AB
:10163000802F0E947D08E981FA8100831183128343
:1016400013821482DF0185829682A782B086118B75
:10165000128B5396BA83A983CA16DB0629F7E09149
:10166000E703F091E80382E08083E091E303F091E7
:10167000E4031082E091E503F091E60388E08083C3
:101680001092EF03E091EB03F091EC0386E080838E
:10169000E091E903F091EA03808180618083E09129
:1016A000E903F091EA03808188608083E091E90397
:1016B000F091EA03808180688083E091E903F091F2
:1016C000EA0380818F7D808380917803811145C0FA
:1016D00010926A03109269038FEF80936D038093D9
:1016E0006E0380936F0380937003809371038093E4
:1016F000720381E080937303109275031092740358
:1017000010926C0310926B038091D5039091D603D5
:10171000892B31F487E693E09093D6038093D50329
:10172000E0916503F0916603309721F087E693E03E
:101730009583848387E693E09093660380936503A3
:1017400010927703109276038CE291E090936803F5
:101750008093670381E080937803229A8BEA93E079
:1017600090936A03809369038AE090E090937503F5
:101770008093740380917F0590918005A0918105ED
:10178000B0918205843CE9E09E07A105B10520F4F3
:1017900084EC99E0A0E0B0E080937F059093800511
:1017A000A0938105B093820561E0809175040E9449
:1017B0007D0861E0809175040E941A078091780489
:1017C000882309F448C08091790490917A04892B88
:1017D000F9F48AE090E00E94D41AFC018091770429
:1017E00090E02091760430E0318320832FEF3FEFAB
:1017F000338322839583848384E090E0A0E0B0E08B
:1018000086839783A087B187F0937A04E093790465
:101810002091790430917A043A832983D9018D91FA
:101820009C918F3FBFEF9B0719F061E00E947D08FC
:10183000E981FA81828193818F3FFFEF9F0719F041
:1018400060E00E947D0861E0A981BA8114968C91C4
:101850000E947D0835C0BFB7B983F89480916403B6
:10186000811127C0E0E9F0E08491E4EAF0E094918E
:10187000E82FF0E0EE0FFF1FE859FF4FA591B4915C
:10188000EC91E92321F461E08AE00E941A0761E00B
:101890008AE00E947D088CB580618CBD8CB5806427
:1018A0008CBD61E08DE00E947D0861E08BE00E94CC
:1018B0007D08809164038F5F80936403E981EFBFAB
:1018C00067E08BE00E94D80760E089E00E94D807BB
:1018D00060E08FE00E94D8076FE08AE00E94D8079E
:1018E00082E693E00E943E0861E08CE00E94D80707
:1018F00065E08AE00E94D80764E670E080E090E04E
:101900000E94DE08198241E068E389810E94F507A0
:10191000F981FF5FF983F830B1F7A9EC2A2EA3E033
:101920003A2EEBEAF3E08FEF808381838283339654
:101930002E163F06C9F70E94240968EE73E080E086
:1019400090E00E94DE0887E591E00E943E08EBEA05
:10195000F3E010821182128233962E163F06C9F7E9
:101960000E94240980E090E00E943D1A8F3F71F5AB
:101970006AE071E08AE090E00E94EA0561E071E0CF
:1019800084E190E00E94EA056EE071E08EE190E073
:101990000E94EA0565E071E088E290E00E94EA05B5
:1019A00080E090E00E943D1A882329F060E080E00A
:1019B00090E00E94451A81E090E00E943D1A882341
:1019C00029F060E081E090E00E94451A6AE071E051
:1019D0008AE090E00E94C40561E071E084E190E05B
:1019E0000E94C4056EE071E08EE190E00E94C405A3
:1019F00065E071E088E290E00E94C405EAE0CE2E46
:101A0000D12CE12CF12CF0EA4F2EF6E85F2E662463
:101A10006394712C2091CA032983223009F441C4B4
:101A200038F4222391F0213009F4D7C20C944319E1
:101A30003981343011F40C94BA1508F42BC63530C2
:101A400011F40C943F180C9443190E9415068091D0
:101A50008003813009F4AEC038F0823009F450C1FF
:101A6000833009F4F3C174C280910001882309F422
:101A700050C01092000180E691E00E943E08609103
:101A80000A0170910B0180910C0190910D0124E6E7
:101A900030E040E050E00E94771A60E3620F40E0DF
:101AA00085E00E94F50760910A0170910B01809119
:101AB0000C0190910D01A70196010E94771ACA01AD
:101AC000B901A70196010E94771A605D40E086E0A7
:101AD0000E94F50760910A0170910B0180910C0141
:101AE00090910D01A70196010E94771A605D40E078
:101AF00087E00E94F5078BE691E00E940507609160
:101B00000A0170910B0180910C0190910D010E94CE
:101B1000F6068BE794E00E944A0681111FC080916F
:101B20000A0190910B01A0910C01B0910D01059655
:101B3000A11DB11D89379105A105B10520F088E7E8
:101B400090E0A0E0B0E080930A0190930B01A09395
:101B50000C01B0930D0181E08093000181EA94E0D3
:101B60000E944A068111E6C180910A0190910B0101
:101B7000A0910C01B0910D010597A109B109853023
:101B80009105A105B10548F080930A0190930B01DE
:101B9000A0930C01B0930D01CAC125E030E040E0F4
:101BA00050E020930A0130930B0140930C015093B5
:101BB0000D01BDC180910001882309F450C010922D
:101BC000000180E891E00E943E086091010170915F
:101BD0000201809103019091040124E630E040E08D
:101BE00050E00E94771A60E3620F40E085E00E94B7
:101BF000F5076091010170910201809103019091BC
:101C00000401A70196010E94771ACA01B901A70130
:101C100096010E94771A605D40E086E00E94F50719
:101C20006091010170910201809103019091040182
:101C3000A70196010E94771A605D40E087E00E944C
:101C4000F5078AE891E00E94050760910101709113
:101C5000020180910301909104010E94F6068BE736
:101C600094E00E944A0681111FC080910101909169
:101C70000201A0910301B09104010596A11DB11DBF
:101C800089379105A105B10520F088E790E0A0E033
:101C9000B0E08093010190930201A0930301B093FF
:101CA000040181E08093000181EA94E00E944A06E9
:101CB000811140C18091010190910201A091030125
:101CC000B09104010597A109B10985309105A105DD
:101CD000B10548F08093010190930201A0930301A4
:101CE000B093040124C125E030E040E050E02093AF
:101CF000010130930201409303015093040117C185
:101D000080910001882309F450C01092000180EAFC
:101D100091E00E943E0860910E0170910F01809148
:101D200010019091110124E630E040E050E00E9463
:101D3000771A60E3620F40E085E00E94F50760914A
:101D40000E0170910F018091100190911101A70176
:101D500096010E94771ACA01B901A70196010E9453
:101D6000771A605D40E086E00E94F50760910E0101
:101D700070910F018091100190911101A7019601BE
:101D80000E94771A605D40E087E00E94F50789EACB
:101D900091E00E94050760910E0170910F01809102
:101DA0001001909111010E94F6068BE794E00E94C9
:101DB0004A0681111FC080910E0190910F01A091E0
:101DC0001001B09111010596A11DB11D8937910532
:101DD000A105B10520F088E790E0A0E0B0E0809395
:101DE0000E0190930F01A0931001B093110181E0B7
:101DF0008093000181EA94E00E944A0681119AC012
:101E000080910E0190910F01A0911001B0911101EC
:101E10000597A109B10985309105A105B10548F0E3
:101E200080930E0190930F01A0931001B0931101C4
:101E30007EC025E030E040E050E020930E0130937A
:101E40000F01409310015093110171C08091000166
:101E50008823D9F0109200018FEB91E00E943E0898
:101E600060910501605D40E087E00E94F50787EC26
:101E700091E00E9405076091050170910601809133
:101E80000701909108010E94F6068BE794E00E94FA
:101E90004A0681111FC08091050190910601A09111
:101EA0000701B09108010196A11DB11D8630910571
:101EB000A105B10520F085E090E0A0E0B0E08093BE
:101EC000050190930601A0930701B093080181E0FA
:101ED0008093000181EA94E00E944A0681112AC0A1
:101EE0008091050190910601A0910701B091080130
:101EF0000097A105B10559F00197A109B109809397
:101F0000050190930601A0930701B093080121E019
:101F10008091050190910601A0910701B0910801FF
:101F2000892B8A2B8B2B09F420E02093090181E077
:101F3000809300018EE894E00E944A06811108C057
:101F4000809180038F5F8093800381E08093000104
:101F500080918003843011F00C9443191092800317
:101F600081E08093CA0384EE91E00E943E088AEEED
:101F700091E00E94E8066AE071E08AE090E00E9449
:101F8000EA0561E071E084E190E00E94EA056EE01C
:101F900071E08EE190E00E94EA0565E071E088E280
:101FA00090E00E94EA05409293045092940460925B
:101FB0009504709296044092A6045092A7046092F1
:101FC000A8047092A9044092800450928104609207
:101FD0008204709283040C9443190E9415068EE8C3
:101FE00094E00E944A06882309F483C081EA94E0C1
:101FF0000E944A068111D1C08BEF91E00E94E80651
:1020000051E05093950380E492E4AFE0B0E0809318
:10201000930490939404A0939504B09396048FEF47
:1020200080939E0393E09093CA0320910101309125
:1020300002014091030150910401A8EEB3E00E9417
:10204000A01A4B015C010E941809860E971EA81E5B
:10205000B91E8092890390928A03A0928B03B0925A
:102060008C0389E092E00E9405071092A70310926A
:10207000A8031092A9031092AA0310929A03109237
:102080009B0310929C0310929D03209101013091BB
:1020900002014091030150910401A8EEB3E00E94B7
:1020A000A01AA70196010E94771A209396033093F5
:1020B0009703409398035093990380908D039090D9
:1020C0008E03A0908F03B09090030E941809861A87
:1020D000970AA80AB90A8092910390929203A0925B
:1020E0009303B0929403A1E0A0938C04A093B20454
:1020F00054C081EF91E00E94E8061092950382E0BF
:102100008093CA0320910A0130910B0140910C0188
:1021100050910D01A8EEB3E00E94A01A4B015C01A2
:102120000E941809860E971EA81EB91E80928D0364
:1021300090928E03A0928F03B092900320910A0197
:1021400030910B0140910C0150910D01A8EEB3E0CC
:102150000E94A01AA70196010E94771A2093960365
:1021600030939703409398035093990320E432E40B
:102170004FE050E0209393043093940440939504EF
:1021800050939604E4EBF4E081E0808F79964CE77D
:1021900055E04E175F07C9F729CF809109018823C1
:1021A00011F40C9443190E942706E4EBF4E0FA833F
:1021B000E98310E001E0A981BA8113968C9113970D
:1021C000882309F441C057960C930E9418094B01CB
:1021D0005C01209105013091060140910701509169
:1021E0000801A8EEB3E00E94A01ADC01CB01880D23
:1021F000991DAA1DBB1DE981FA81838B948BA58B48
:10220000B68B86E192E00E940507812F0E940707A6
:102210008FE292E00E94050760910501709106012E
:1022200080910701909108010E94F6068DE392E0EB
:102230000E940507A981BA8153966D917D918D9178
:102240009C9156970E94F6061F5FE981FA81799664
:10225000FA83E983183009F0AECF24EB34E03A83F7
:10226000298310E0A981BA8157968C91882379F04F
:102270000E941809E981FA8183889488A588B68824
:1022800086169706A806B90610F40C9447191F5F26
:1022900029813A81275E3F4F3A832983183011F70D
:1022A000F2C70E9418090091A7031091A80320917A
:1022B000A9033091AA03061717072807390708F062
:1022C00062C00E941809DC01CB0188519C4FAF4FBE
:1022D000BF4F8093A7039093A803A093A903B09343
:1022E000AA0380908D0390908E03A0908F03B090EE
:1022F00090030E941809861A970AA80AB90AC5010C
:10230000B40128EE33E040E050E00E94771A2983C0
:102310003A834B835C832093810330938203409301
:1023200083035093840386E492E00E943E08C50133
:10233000B401A30192010E94771A60E3620F40E0AA
:1023400085E00E94F507C501B40120E137E240E0D5
:1023500050E00E94771ACA01B901A70196010E94B4
:10236000771A605D40E086E00E94F50769817A8116
:102370008B819C81A70196010E94771A605D40E0E5
:1023800087E00E94F5070E94180900919A031091B6
:102390009B0320919C0330919D0306171707280784
:1023A000390708F063C00E94180900919603109144
:1023B00097032091980330919903DC01CB01800FA2
:1023C000911FA21FB31F80939A0390939B03A09326
:1023D0009C03B0939D0380908D0390908E03A090FA
:1023E0008F03B09090030E941809861A970AA80AD2
:1023F000B90A20910A0130910B0140910C015091D2
:102400000D01AAE0B0E00E94A01A9B01AC01C50139
:10241000B4010E94771AAAE0B0E00E94A01A24E654
:1024200030E040E050E00E94771A2F5FEBEAF3E0E3
:1024300080E036E69FEF821730F43083118292837A
:102440008F5F3396F8CF2A3078F4822F90E0AC017A
:10245000440F551F840F951FFC01E555FC4F10825A
:10246000118212822F5FEFCF0E9424090E9427065B
:1024700044EB54E05A83498310E0A981BA8158960D
:102480008C915897882309F4AAC057968C91579736
:102490008111A5C013968C911397882309F49FC0CE
:1024A00061E08C910E947D08E981FA818081883009
:1024B00048F098EF980F963050F4E5E2F0E0A5E28E
:1024C000B0E009C0EBE2F0E0ABE2B0E004C0E8E26B
:1024D000F0E0A8E2B0E02C918E3050F08E5041E058
:1024E00050E002C0440F551F8A95E2F7CA0109C0A7
:1024F0008770A1E0B0E002C0AA0FBB1F8A95E2F787
:10250000CD01809582238083B3E0B093CA032091EC
:102510000101309102014091030150910401A8EEA4
:10252000B3E00E94A01A4B015C010E941809860EBC
:10253000971EA81EB91E8092890390928A03A092CA
:102540008B03B0928C0310939E038EE492E00E9462
:102550000507812F0E9407071092A7031092A80376
:102560001092A9031092AA0310929A0310929B034F
:1025700010929C0310929D03209101013091020161
:102580004091030150910401A8EEB3E00E94A01A0B
:10259000A70196010E94771A209396033093970320
:1025A000409398035093990380908D0390908E03ED
:1025B000A0908F03B09090030E941809861A970A82
:1025C000A80AB90A8092910390929203A092930371
:1025D000B092940381E080938C048093B2041F5FD7
:1025E000E981FA817996FA83E983183009F045CFB9
:1025F0000E9415068EE894E00E944A0681110AC0E6
:1026000085E08093CA0381E08093C90380E692E06D
:102610000E94E8060E94180900918D0310918E0314
:1026200020918F0330919003061717072807390769
:1026300048F485E08093CA031092C90388E692E0CB
:102640000E94E80680910901882309F41CC624EB46
:1026500034E03A83298310E0A981BA8157968C919E
:10266000882371F00E941809E981FA81838894888F
:10267000A588B68886169706A806B90608F414C673
:102680001F5F29813A81275E3F4F3A8329831830A3
:1026900019F7F9C50E9418090091A7031091A80322
:1026A0002091A9033091AA030617170728073907B5
:1026B00008F069C00E941809DC01CB0188519C4FC9
:1026C000AF4FBF4F8093A7039093A803A093A90394
:1026D000B093AA038090890390908A03A0908B0303
:1026E000B0908C030E941809861A970AA80AB90AA2
:1026F000C501B40128EE33E040E050E00E94771AB3
:1027000029833A834B835C8320938503309386032C
:10271000409387035093880383E792E00E943E082A
:1027200060919E036F5C41E083E00E94F507C50164
:10273000B401A30192010E94771A60E3620F40E0A6
:1027400085E00E94F507C501B40120E137E240E0D1
:1027500050E00E94771ACA01B901A70196010E94B0
:10276000771A605D40E086E00E94F50769817A8112
:102770008B819C81A70196010E94771A605D40E0E1
:1027800087E00E94F5070E94180900919A031091B2
:102790009B0320919C0330919D0306171707280780
:1027A000390708F062C00E94180900919603109141
:1027B00097032091980330919903DC01CB01800F9E
:1027C000911FA21FB31F80939A0390939B03A09322
:1027D0009C03B0939D038090890390908A03A090FE
:1027E0008B03B0908C030E941809861A970AA80AD6
:1027F000B90A2091010130910201409103015091E9
:102800000401AAE0B0E00E94A01A9B01AC01C5013E
:10281000B4010E94771AAAE0B0E00E94A01A24E650
:1028200030E040E050E00E94771A2F5FEBEAF3E0DF
:1028300080E09FEF821730F41082118292838F5FC5
:102840003396F8CF2A3078F4822F90E0AC01440F11
:10285000551F840F951FFC01E555FC4F1082118216
:1028600012822F5FEFCF0E9424090E9415068BE78A
:1028700094E00E944A0681110DC085E08093CA034E
:1028800082E08093C90388E792E00E94E80681E035
:1028900080939F0481EA94E00E944A06811193C0CC
:1028A00080919503882339F085E08093CA0333E053
:1028B0003093C90303C082E08093CA038CE892E09E
:1028C0000E94E80645E04983EBEAF3E05FEF5083BE
:1028D00011821282339683E0E93CF807B9F70E942F
:1028E000240964E670E080E090E00E94DE08EBEAF4
:1028F000F3E0108211821282339693E0E93CF907EB
:10290000C1F70E94240964E670E080E090E00E9434
:10291000DE08A981A150A983A111D6CFE0919E0321
:10292000B9E1EB02F0011124EC54FB4F108E8081D1
:102930009281992311F0E2E0E98369810E947D0888
:102940000E94180900919103109192032091930322
:1029500030919403DC01CB01800F911FA21FB31FA4
:1029600080938D0390938E03A0938F03B093900375
:102970001092A7031092A8031092A9031092AA0321
:1029800010929A0310929B0310929C0310929D0345
:1029900020910A0130910B0140910C0150910D01E1
:1029A000A8EEB3E00E94A01AA70196010E94771A30
:1029B0002093960330939703409398035093990381
:1029C00081E080939F040E9418090091890310916F
:1029D0008A0320918B0330918C0306171707280771
:1029E000390708F045C084E08093CA030E941809A3
:1029F0004B015C0120910E0130910F0140911001BB
:102A000050911101A8EEB3E00E94A01A8B019C0125
:102A10000150110921093109800E911EA21EB31E19
:102A20008092A3039092A403A092A503B092A60360
:102A30001092A7031092A8031092A9031092AA0360
:102A400010929A0310929B0310929C0310929D0384
:102A5000A70196010E94771A20939603309397035B
:102A6000409398035093990381EA92E00E94E8060C
:102A700080910901882309F406C40E94270624EBEB
:102A800034E03A83298310E001E0A981BA811396EA
:102A90008C911397882309F441C057960C930E9498
:102AA00018094B015C01209105013091060140910C
:102AB000070150910801A8EEB3E00E94A01ADC01C2
:102AC000CB01880D991DAA1DBB1DE981FA81838B5D
:102AD000948BA58BB68B86E192E00E940507812F2F
:102AE0000E9407078FE292E00E94050760910501AE
:102AF0007091060180910701909108010E94F606ED
:102B00008DE392E00E940507A981BA8153966D91E9
:102B10007D918D919C9156970E94F6061F5FE981E9
:102B2000FA817996FA83E983183009F0AECF24EB65
:102B300034E03A83298310E0A981BA8157968C91B9
:102B4000882371F00E941809E981FA8183889488AA
:102B5000A588B68886169706A806B90608F4AFC3F6
:102B60001F5F29813A81275E3F4F3A8329831830BE
:102B700019F789C30E9418090091A7031091A803AF
:102B80002091A9033091AA030617170728073907D0
:102B900008F069C00E941809DC01CB0188519C4FE4
:102BA000AF4FBF4F8093A7039093A803A093A903AF
:102BB000B093AA038090A3039090A403A090A503D0
:102BC000B090A6030E941809861A970AA80AB90AA3
:102BD000C501B40128EE33E040E050E00E94771ACE
:102BE00029833A834B835C8320939F033093A00314
:102BF0004093A1035093A2038BEA92E00E943E0807
:102C000060919E036F5C41E083E00E94F507C5017F
:102C1000B401A30192010E94771A60E3620F40E0C1
:102C200085E00E94F507C501B40120E137E240E0EC
:102C300050E00E94771ACA01B901A70196010E94CB
:102C4000771A605D40E086E00E94F50769817A812D
:102C50008B819C81A70196010E94771A605D40E0FC
:102C600087E00E94F5070E94180900919A031091CD
:102C70009B0320919C0330919D030617170728079B
:102C8000390708F062C00E9418090091960310915C
:102C900097032091980330919903DC01CB01800FB9
:102CA000911FA21FB31F80939A0390939B03A0933D
:102CB0009C03B0939D038090A3039090A403A090E5
:102CC000A503B090A6030E941809861A970AA80ABD
:102CD000B90A20910E0130910F01409110015091DD
:102CE0001101AAE0B0E00E94A01A9B01AC01C5014D
:102CF000B4010E94771AAAE0B0E00E94A01A24E66C
:102D000030E040E050E00E94771A2F5FEBEAF3E0FA
:102D100080E09FEF821730F49083918312828F5F5F
:102D20003396F8CF2A3078F4822F90E0AC01440F2C
:102D3000551F840F951FFC01E555FC4F1082118231
:102D400012822F5FEFCF0E9424090E9415068BE7A5
:102D500094E00E944A0681110DC085E08093CA0369
:102D600082E08093C90380EB92E00E94E80681E054
:102D700080939F0481EA94E00E944A06811192C0E8
:102D800080919503882339F085E08093CA0333E06E
:102D90003093C90303C082E08093CA0384EC92E0BD
:102DA0000E94E80645E04983EBEAF3E05FEF5083D9
:102DB0001182128233962E163F06C1F70E94240913
:102DC00064E670E080E090E00E94DE08EBEAF3E069
:102DD000108211821282339683E0E93CF807C1F732
:102DE0000E94240964E670E080E090E00E94DE0822
:102DF0009981915099839111D7CFE0919E03A9E1D8
:102E0000EA02F0011124EC54FB4F108E8081928174
:102E1000992311F0B2E0B98369810E947D080E9474
:102E2000180900919103109192032091930330911E
:102E30009403DC01CB01800F911FA21FB31F80936D
:102E40008D0390938E03A0938F03B0939003109201
:102E5000A7031092A8031092A9031092AA0310923C
:102E60009A0310929B0310929C0310929D03209151
:102E70000A0130910B0140910C0150910D01A8EE17
:102E8000B3E00E94A01AA70196010E94771A20932E
:102E9000960330939703409398035093990381E0EE
:102EA00080939F040E9418090091A3031091A4032A
:102EB0002091A5033091A6030617170728073907A5
:102EC00008F05BC089ED92E00E94E80682E0809302
:102ED000CA03E5E0E983EBEAF3E02FEF20831182F8
:102EE000128233962E163F06C1F70E94240964E62B
:102EF00070E080E090E00E94DE08EBEAF3E01082F0
:102F00001182128233962E163F06C9F70E942409B9
:102F100064E670E080E090E00E94DE083981315084
:102F200039833111D8CFE0919E0349E1E402F001E9
:102F30001124EC54FB4F108E80819281992311F063
:102F400052E0598369810E947D080E94180900910E
:102F50009103109192032091930330919403DC012B
:102F6000CB01800F911FA21FB31F80938D039093FD
:102F70008E03A0938F03B09390038091090188235F
:102F800009F481C10E94270684EB94E09A83898327
:102F900010E001E0A981BA8113968C9113978823E0
:102FA00009F441C057960C930E9418094B015C012B
:102FB00020910501309106014091070150910801CF
:102FC000A8EEB3E00E94A01ADC01CB01880D991D88
:102FD000AA1DBB1DE981FA81838B948BA58BB68BCF
:102FE00086E192E00E940507812F0E9407078FE289
:102FF00092E00E94050760910501709106018091A1
:103000000701909108010E94F6068DE392E00E946C
:103010000507A981BA8153966D917D918D919C91FF
:1030200056970E94F6061F5FE981FA817996FA8326
:10303000E983183009F0AECF24EB34E03A832983DA
:1030400010E0A981BA8157968C91882371F00E9473
:103050001809E981FA8183889488A588B68886163C
:103060009706A806B90608F436C11F5F29813A8180
:10307000275E3F4F3A832983183019F704C18091A6
:10308000C9038130C9F158F0823009F462C083303D
:1030900009F0B5C08EE293E00E94E806ADC081EF72
:1030A00092E00E94E806EBEAF3E03FEF3083118202
:1030B000128233962E163F06C1F70E94240964E659
:1030C00070E080E090E00E94DE08EBEAF3E010821E
:1030D0001182128233962E163F06C9F70E942409E8
:1030E00064E670E080E090E00E94DE084981415093
:1030F00049834111D8CF83C087E093E00E94E8065E
:10310000EBEAF3E05FEF50835183128233962E1681
:103110003F06C1F70E94240964E670E080E090E079
:103120000E94DE08EBEAF3E01082118212823396ED
:103130002E163F06C9F70E94240964E670E080E07D
:1031400090E00E94DE088981815089838111D8CF67
:1031500056C08AE193E00E94E806EBEAF3E01082B1
:103160009FEF9183128233962E163F06C1F70E947D
:10317000240964E670E080E090E00E94DE08EBEA5B
:10318000F3E010821182128233962E163F06C9F7A1
:103190000E94240964E670E080E090E00E94DE086E
:1031A000A981A150A983A111D8CF29C0BFEFB083B5
:1031B0001182128233962E163F06C1F70E9424090F
:1031C00064E670E080E090E00E94DE08EBEAF3E065
:1031D00010821182128233962E163F06C9F70E9482
:1031E000240964E670E080E090E00E94DE08E98156
:1031F000E150E983EE2319F0EBEAF3E0D7CF81E069
:103200008093CA0340929304509294046092950470
:10321000709296044092A6045092A7046092A8046B
:103220007092A904409280045092810460928204BA
:103230007092830484EE91E00E943E088AEE91E051
:103240000E94E80624EB34E03A83298311E0A98147
:10325000BA8158961C93589757961C9257978C9101
:1032600012969C91911102C060E001C062E00E9440
:103270007D08E981FA817996FA83E9832CE735E0C4
:103280002E173F0721F70E94C1010C940A0DA98156
:10329000BA8157961C9283E493E00E940507812F20
:1032A0000E9407070C944711E981FA81178A83E489
:1032B00093E00E940507812F0E940707E1C9A981B9
:1032C000BA8157961C9283E493E00E940507812FF0
:1032D0000E94070745CCE981FA81178A83E493E0CD
:1032E0000E940507812F0E940707BFCE60E08CE097
:1032F0000E94D8078091790490917A04009731F068
:103300000E946C1B10927A041092790480917804C8
:10331000811111C09FB7F89480916403882319F03C
:1033200081508093640380916403811103C08CB544
:103330008F7B8CBD9FBF08951092DA031092D90342
:1033400088EE93E0A0E0B0E08093DB039093DC0391
:10335000A093DD03B093DE0389E491E09093D8035A
:103360008093D70385EC90E09093E4038093E3038C
:1033700084EC90E09093E6038093E50380EC90E08A
:103380009093E8038093E70381EC90E09093EA0345
:103390008093E90382EC90E09093EC038093EB033D
:1033A00086EC90E09093EE038093ED031092F0038F
:1033B0001092F1031092F2031092F303E4EBF4E0A5
:1033C00092E040E157E260E070E081E0908311829A
:1033D0001282138214824583568367837087818BA0
:1033E000828B138A148A158A168A178A108E799608
:1033F00025E0EC37F20751F7EBE7F4E022E040E19B
:1034000057E260E070E091E0208311821282138223
:103410001482458356836783708781E0918B928BFA
:10342000739634E0E43BF30779F7809374049CE0EF
:10343000909375049BE0909376049DE090937704BD
:103440008093780410927A04109279048FEF80931D
:103450007C0510927E0510927D05109288051092D1
:1034600087058FEF9FEFDC018093830590938405A0
:10347000A0938505B09386050895F999FECF92BD76
:1034800081BDF89A992780B50895262FF999FECF26
:103490001FBA92BD81BD20BD0FB6F894FA9AF99A71
:1034A0000FBE01960895DB018F939F930E94A01A8F
:1034B000BF91AF91A29F800D911DA39F900DB29FD0
:1034C000900D1124089597FB072E16F4009407D051
:1034D00077FD09D00E94AB1A07FC05D03EF4909509
:1034E00081959F4F0895709561957F4F0895A1E252
:1034F0001A2EAA1BBB1BFD010DC0AA1FBB1FEE1F6E
:10350000FF1FA217B307E407F50720F0A21BB30BB8
:10351000E40BF50B661F771F881F991F1A9469F734
:1035200060957095809590959B01AC01BD01CF0190
:1035300008950E94C51AB7FF0895821B930B089542
:103540000E94C51AA59F900DB49F900DA49F800D59
:10355000911D11240895AA1BBB1B51E107C0AA1F8E
:10356000BB1FA617B70710F0A61BB70B881F991F24
:103570005A95A9F780959095BC01CD010895EE0F5D
:10358000FF1F0590F491E02D0994A29FB001B39F15
:10359000C001A39F700D811D1124911DB29F700D5C
:1035A000811D1124911D08950F931F93CF93DF93D5
:1035B0008230910510F482E090E0E0919605F09160
:1035C000970520E030E0A0E0B0E0309719F14081AD
:1035D00051810281138148175907C8F08417950754
:1035E00069F4109731F012960C93129713961C936E
:1035F00027C0009396051093970522C02115310529
:1036000019F04217530718F49A01BD01EF01DF01C9
:10361000F801DBCF21153105F9F0281B390B2430D7
:10362000310580F48A819B816115710521F0FB01D0
:103630009383828304C09093970580939605FE013F
:10364000329644C0FE01E20FF31F81939193225002
:103650003109398328833AC020919405309195052A
:10366000232B41F4209114013091150130939505DD
:1036700020939405209112013091130121153105F9
:1036800041F42DB73EB74091160150911701241B0C
:10369000350BE0919405F0919505E217F307A0F43E
:1036A0002E1B3F0B2817390778F0AC014E5F5F4F98
:1036B0002417350748F04E0F5F1F50939505409330
:1036C00094058193919302C0E0E0F0E0CF01DF9197
:1036D000CF911F910F910895CF93DF93009709F435
:1036E00081C0FC01329713821282A0919605B0919D
:1036F0009705109781F420813181820F931F2091CB
:103700009405309195052817390751F5F0939505E3
:10371000E093940567C0ED0120E030E0CE17DF07AD
:1037200040F44A815B819E0141155105F1F0EA01A7
:10373000F5CFD383C28340815181840F951FC81771
:10374000D90759F488819981840F951F0296918336
:1037500080838A819B81938382832115310529F49B
:10376000F0939705E09396053DC0E901FB83EA835A
:1037700049915991C40FD51FEC17FD0761F4808161
:103780009181840F951F0296E90199838883828134
:1037900093819B838A83E0E0F0E012968D919C9167
:1037A0001397009719F0FD01DC01F7CF8D919C91E3
:1037B00011979D012E5F3F4F820F931F209194051B
:1037C000309195052817390769F4309729F410923C
:1037D00097051092960502C013821282B093950548
:1037E000A0939405DF91CF91089581E090E0F89443
:1037F0000C94FA1B10E0C0E9D0E004C0FE010E9466
:0E380000BF1A2196C139D107C9F7F894FFCF3E
:10380E00011E00000002000000010500000078000B
:10381E00000000009805200000000000F102F102F7
:10382E00F102C602EA02EE020000000053020F028D
:10383E000D02C602EA020A02F3020E0F1002030480
:10384E000506070809000000005201BB00E9009FB1
:10385E00011A01F8000C0120202020202020200039
:10386E00436E742E646E2E20202000517565737485
:10387E00696F6E20636F756E74646F776E3A200099
:10388E00416E532E202020202000416E73776572EA
:10389E00696E6720636F756E74646F776E3A200081
:1038AE004A75646745202020004A756467656D651A
:1038BE006E7420636F756E74646F776E3A2000506D
:1038CE00456E2E2020200046616C73655374617224
:1038DE00742050656E616C7479207365636F6E64CD
:1038EE00733A2000724541645900524541445921B2
:1038FE00005175657374696F6E21004341542071D8
:10390E0075657374696F6E210043617420717565FE
:10391E007374696F6E0046414C53452053544152A7
:10392E005420666F7220706C617965723A20006661
:10393E006F72207365636F6E64733A200062656602
:10394E006F72653A2000436E742E646E2E00416EC7
:10395E0073776572696E6720706C6179657220008D
:10396E00534B49505045440054494D45204953202E
:10397E00555000416E2E5000414E53574552494E00
:10398E0047205452554521202B2B2B00414E535787
:10399E004552494E472046414C534521202D2D2D51
:1039AE00004A554447454D454E54004A642E50003A
:1039BE004A554447454D454E5420545255452120B5
:1039CE002B2B2B004A554447454D454E542046411E
:1039DE004C534521202D2D2D004A554447454D452C
:1039EE004E5420454E442054494D4521202D2D2D19
:1039FE0000524F554E4420454E442054494D4520CB
:103A0E0049532055502100524F554E4420454E44A7
:103A1E0020534B49505045442100524F554E44209F
:103A2E00454E4420414E5357455245442100524F76
:103A3E00554E4420454E44204341542046414C535C
:103A4E0045210046414C5345205354415254204584
:103A5E004E4420666F7220706C617965723A200058
:043A6E000D0A00003D
:00000001FF
